:020000040800F2
:10000000000002209D5D0008D15D0008D15D000860
:10001000D15D0008D15D0008D15D0008000000003E
:10002000000000000000000000000000615C00080B
:10003000D15D000800000000075D0008675D000852
:10004000D15D0008D15D0008D15D0008D15D0008D8
:10005000D15D0008D15D0008D15D0008D15D0008C8
:10006000D15D0008D15D0008D15D0008D15D0008B8
:10007000D15D0008D15D0008D15D0008D15D0008A8
:10008000D15D0008D15D0008D15D000800000000CE
:10009000000000000000000000000000D15D00082A
:1000A000D15D0008D15D0008D15D0008D15D000878
:1000B000D15D0008D15D0008D15D0008D15D000868
:1000C000D15D0008D15D0008D15D0008D15D000858
:1000D000D15D0008D15D0008D15D0008000000007E
:1000E000D15D0008D15D0008D15D0008000000006E
:1000F000000000000000000000000000D15D0008CA
:1001000000000000D15D0008D15D0008D15D00084D
:1001100000000000000000000000000000000000DF
:10012000D15D0008D15D0008D15D0008D15D0008F7
:10013000D15D000800000000000000000000000089
:10014000000000000000000000000000D15D000879
:10015000D15D0008D15D0008D15D0008D15D0008C7
:10016000D15D0008D15D0008000000000000000023
:10017000000000000000000000000000000000007F
:1001800000000000D15D0008000000000000000039
:10019000D15D0008D15D000810B5054C237833B956
:1001A000044B13B10448AFF300800123237010BD4A
:1001B0004002002000000000907D00080C4B43B17D
:1001C0000C480D4910B5AFF300800C48036823B903
:1001D00010BD0A48036833B97047094B002BF7D0AC
:1001E000BDE810401847064B002BF5D0184700BF5C
:1001F00000000000907D000844020020380200202A
:100200000000000043680B7043681B0A4B70C388F2
:100210008B70C379CB7083680B7183681B0A4B7139
:1002200043898B71C37ACB71082070470B78436088
:100230004A7843EA022343608A7843EA02434360F0
:10024000CA7843EA026343600B7983604A7943EAE0
:10025000022383608A7943EA02438360CA7943EACE
:100260000263836008207047004870474E7600089C
:10027000004870472D76000800487047BF75000899
:10028000004870479E750008004870478B7500084D
:10029000004870476A75000800487047D875000824
:1002A00000487047497500080020704700207047DB
:1002B000004870477D760008004870475C7600086B
:1002C00043680B701A0A4A701A0C1B0E8A70CB70A6
:1002D000042070470B684360042070470048704753
:1002E000AD760008004870478C7600088268C368C5
:1002F0000A7010B5140A4C70140C120ECA701A0A47
:100300000B714A711A0C1B0E8C708A71CB710269C9
:1003100043690A72140A4C72140C120ECA721A0A39
:100320000B734A731A0C1B0E8C728A73CB7382691F
:10033000C3690A74100A4874100C120ECA741A0A9F
:100340000B754A751A0C1B0E88748A75CB751820AC
:1003500010BD0A684B68C0E902238A68CB68C0E90F
:1003600004230A694B69C0E906231820704700007E
:100370000048704733750008004870471275000840
:100380000368184708B10B6803607047704770B581
:10039000054600F110042046FFF7DBFF2B6B2046DB
:1003A000BDE870401847406B704700000048704738
:1003B00033750008004870471275000803690C3057
:1003C0001847406970470000004870477D76000874
:1003D000004870475C76000870B5054600F10C04D3
:1003E0002046FFF777FF6B692046BDE8704018474D
:1003F0008069704700487047AD7600080048704734
:100400008C76000890F8E8057047000010B50446A7
:100410004168054800F0EBFE606805F03FFE034BC5
:10042000C3E9040110BD00BFF8090020200300202B
:10043000024B034800221A6000F01BBFF80A00209C
:10044000F809002010B5074B44681C60204605F0F1
:1004500025FE054BC3E9020121460448BDE81040D2
:1004600000F0D4BFF80A002020030020F809002083
:1004700070B50446D0E9020106F076F80B4B05464C
:100480001860D4E9040106F06FF8094B06461860BD
:10049000D4E9060106F068F8064A034610602946CA
:1004A00032460548BDE8704000F00EBFA0010020B4
:1004B0009C0100201C030020F8090020104B70B59F
:1004C0001868104C104D05F0E9FDC4E902012846FA
:1004D00000F05CFE05F0E2FDC4E90401284600F0EE
:1004E00052FE05F0DBFD094BC4E90601D8689968A6
:1004F0000268156822462B46BDE87040184700BFC9
:10050000F80A002020030020F80900204003002002
:10051000C36810B504460BB19B689847204610BDD0
:1005200038B50546064B45F8183B044604F072FF03
:100530002846FFF7EDFF204605F0CEF9204638BDEE
:10054000787C000810B50446AC30FFF7E9FF204680
:1005500010BD10B50446FFF7E3FF204605F046FB4B
:10056000204610BD38B5CB6804460D460BB15B681C
:100570009847EB68E360204638BD0138002321FA34
:1005800003F20833202B00F8012FF8D1704743689D
:100590002DE9F0410B7043681B0A4B70C3888B70C8
:1005A000C379CB700D460A1D044600216068814264
:1005B000A2EB050302F104020FD2E36853F82130E5
:1005C00002F8043C180A02F8030C180C1B0E02F87F
:1005D000020C02F8013C0131E8E72269EA54216982
:1005E000EA18090A5170618A9170E17CD170043374
:1005F0002B44002122699142A3EB050603F1040379
:100600000FD2A26952F8212003F8042C100A03F833
:10061000030C100C120E03F8020C03F8012C01312C
:10062000E8E7E369AB55E269AB19120A5A70E28B4D
:100630009A70E27FDA7004360027E3699F4214D291
:10064000636A53F8270006F0ECFC80460146A819BF
:10065000FFF793FF636A043653F82710A819424640
:1006600006F0EEF946440137E7E73046BDE8F08191
:10067000F8B50E46037906F8013B054680680F463B
:1006800006F0CFFC044601463046FFF776FF2246CF
:10069000A968781D06F0D4F9601DF8BD83882DE99E
:1006A000F0410B7083881B0A4B70054680680C462E
:1006B00006F0B7FC07460146A01CFFF75EFF3A466E
:1006C000A968A01D06F0BCF9E86806F0AAFC07F1CD
:1006D0000608064601460A3704EB0800FFF74DFFFF
:1006E0003246E968E01906F0ABF9286906F099FC92
:1006F0003E4401460746A0190436FFF73EFF3A463E
:10070000A01929693E4406F09BF96B69A35534444E
:100710001A0A62701A0C1B0EA270E370301DBDE83D
:10072000F08110B500230360013911F8012F02FA9E
:1007300003F4026808332243202B0260F5D110BD78
:1007400037B50C4611F8013B0371054601A8FFF7C8
:10075000E8FF019B621D581D111B884204D912F845
:10076000011B02F8021CF7E72344002204341A712B
:10077000AC6003B030BDF0B50B7883804A7885B0AB
:1007800043EA022383800C460646023101A8FFF7A4
:10079000C8FF019FA31DBD1D1A1B954204D913F864
:1007A000012B03F8022CF7E7E31900225A71631DAD
:1007B000B360611902A8FFF7B4FF2B1D029D07F17A
:1007C0000A021D442244111B8D4204D912F8011B58
:1007D00002F8021CF7E76119013B2344002201F8EB
:1007E000012C03A8F360FFF79CFF0398043528440D
:1007F00063191A1B904204D913F8012B03F8022C39
:10080000F7E72218013D0023254402F8013C356139
:1008100093785178D2781B0443EA0123215C0B437F
:1008200043EA02630430736105B0F0BD2DE9F34182
:1008300043680D689D4204460E4604D9A900C0686D
:1008400006F094FBE0606560321D00216068814223
:10085000A2EB060302F1040213D212F8023C12F8D2
:10086000030C1B0443EA002312F8040C034312F8A0
:10087000010C43EA0063E068A36040F821300131D5
:10088000E4E7F218F15C95785078D2782D0445EAC7
:1008900000250D431F1D236945EA02659D4204D9C9
:1008A000A900A06906F062FBA0612561F31900218F
:1008B00022699142A3EB060503F1040313D213F856
:1008C000022C13F8030C120442EA002213F8040C61
:1008D000024313F8010C42EA0062A069626140F829
:1008E00021200131E4E77319725D9F785978DB7834
:1008F0003F0447EA0127174347EA0367E3699F423A
:1009000005F1040504D9B900606A06F02FFB6062A6
:10091000E7610027B846E3699F421AD2711901A81E
:10092000FFF7FFFE2B1D019DF2181D44911BA942EC
:1009300004D212F8011B02F8021CF7E77219013BFE
:1009400002F8018C626A3344236242F8273001378F
:10095000E1E7284602B0BDE8F08110B500F5AE62CF
:10096000002352F8044B3CB903F5AE72643340F8EF
:1009700022104B60012010BD0133192BF1D1002052
:1009800010BD0000114A08B5002352F8041FC9B970
:100990000F49104A01EB83007D33C0F80C259360AA
:1009A000D1600D490A48FFF7D8FF0C490848FFF706
:1009B000D4FF0B490648FFF7D0FF0A490448FFF768
:1009C000CCFF08BD0133192BDFD1EAE7A0080020D6
:1009D00098030020400300207C030020FC0A002034
:1009E000DC0A0020C009002030B585B00446094B60
:1009F000019300230293039354F8EC3B01AA1B6874
:100A00000A2105469847204604F051FDC5F8FC0030
:100A100005B030BDD47300082DE9F04186B02B4BF2
:100A2000009300222A4BADF804200546029303935D
:100A30000493059200F20C5400F5AE664FF4007773
:100A40002368BBB158689A68ADF804201A68036837
:100A500002929B6898472368039058680368DB6894
:100A6000984721682B68049005971B6809696A46B6
:100A7000284698470434B442E2D105F2D4564FF4E4
:100A800000772068C8B14368ADF8043083680293EA
:100A900003689B689847039020680368DB68984761
:100AA0002B6804902068D3F80080036805975B6882
:100AB00098476A4601462846C0470434A642E0D11A
:100AC000012385F8E83506B0BDE8F081EC73000835
:100AD0005C770008F0B585B000F1EC051F4B019381
:100AE000044600232846029303930E4604F0DFFCDD
:100AF000D4F8FC203146871A01A8FFF797FB029B28
:100B00004FF47A76B7FBF6F21344029306FB1272A7
:100B1000039B134F284607FB0232039204F0C7FCE5
:100B2000029AB0FBF6F3013AD21A0399C4F80021F5
:100B30000C4A06FB13030A4407FB1323C4F80431D1
:100B400004F5827104F5807000F092FF284604F0ED
:100B5000AEFCC4F8F00505B0F0BD00BFD4730008CA
:100B600040420F0000CA9A3B2DE9F341764C774F83
:100B7000DFF838822046002504F090FE744B236095
:100B800065623A4673492046734C05F011F8012618
:100B900010238DE84800082264231A21204600F023
:100BA000DBFC3A466D49204605F002F80094142318
:100BB0006B4C13221521404600F0DAFB3A46694996
:100BC000404604F0F5FF2046674B40F8043B042301
:100BD0000322022104F1EC08009301954FF4807385
:100BE00001F034F8404604F078FC4FF46143C4F857
:100BF000E83040464FF4007804F02DFC4246294688
:100C000004F58670C4F8FC50C4F80051C4F80451CF
:100C1000C4F8085105F039FF424629464FF06408F0
:100C200004F5437005F031FF4246294604F20C50AA
:100C300005F02BFF4246294604F5AE6005F025FF7E
:100C40004A4BC4F8FC3504F5C2634FF00008C4F801
:100C50000056C4F80456C4F80856C4F80C56C3F835
:100C60000080C4F81456C4F81856C4F81C56C4F8CA
:100C700020563A463E49C4F8D4552046C4F8D855C3
:100C8000C4F8DC55C4F8E055C4F8E45584F8E855D8
:100C9000C4F8EC55C4F8F055C4F8F45584F8F85588
:100CA00004F086FF334BDFF808C1C3F814C0DFF847
:100CB00004E1314FDFF800C1C3F800E0C3F8108051
:100CC000C3F808C0DF609E612C4BDFF8F0C0C3F8AA
:100CD00000C0DFF8ECC0C3F80CC0DFF8E8C0C3F810
:100CE00010C0DFF8E4C0C3F808C05E61244B254A99
:100CF000DF60254F5F61254FC3F800E0C3F8108027
:100D00009F609E61224B234C234F1F6000200021D7
:100D1000C3E90601C3E90801C3E90A01C2E9020106
:100D2000C2E90401C2E906011C4919631C491C619E
:100D300099605E631B491C4B146083E806001D61CB
:100D400002B0BDE8F08100BF5403002098010020EC
:100D5000787C0008210500085C0200204D11000885
:100D600098030020450500087C7400081C740008E6
:100D7000351100087C0300204C740008FC0A002098
:100D8000DC0A00202003002045040008F17400085C
:100D9000C009002064740008C074000871040008D1
:100DA000FB7400080775000840030020F8090020C4
:100DB0000D04000890740008DC740008A874000892
:100DC0003474000831040008E67400082DE9F74F78
:100DD00000F1EC090446484604F069FBD4F8F0350C
:100DE00042F6F822C31A934284BF002384F8E83500
:100DF000D4F8D435054633B1D4F8F43583423CBF3A
:100E00000023C4F8D4350027BA4604F1040B3E464B
:100E100004F58678D4F80831E3B9584600F036FE78
:100E200018BB94F8E8355BB1D4F8EC3540F6C41241
:100E3000EB1A934204D92046FFF7D6FDC4F8EC55CF
:100E4000002F40F0D780BAF1000F14BF6FF00200FE
:100E50000020A7E0484604F02AFBD4F80831401BE4
:100E60009842DAD96FF001009CE0584600F018FE75
:100E70000028D6DBD4F8E435D4F8D4250344072A77
:100E8000C4F8E43510D1D4F8E0355A1C2344C4F832
:100E9000E02583F80C01D4F8D835013BC4F8D835E7
:100EA000002BB7D108231CE0B2B9FF2807D10123DA
:100EB000C4F8D43505F11403C4F8F435AAE748465C
:100EC000019204F0F4FA41F28833401B9842019AEF
:100ED000A0D984F8E825C5E7012A0FD1FE2803D15F
:100EE0000223C4F8D43595E794F8E835C4F8D465FE
:100EF000002B8FD12046FFF777FD8BE7022A09D11F
:100F0000C4F8D805C4F8E0650323C4F8D435C4F8A0
:100F1000E4057FE7032A07D1D4F8D83503EB002096
:100F2000C4F8D8050423DCE7042A0BD15A42D2B214
:100F3000DBB258BF5342FF2B01D10523D1E7C4F8E0
:100F4000D46567E7052A03D1C4F8DC050623DCE78E
:100F5000062A0BD1D4F8DC3503EB00200723C4F8B4
:100F6000D435C4F8DC05D4F8D83599E7082A7FF4DD
:100F700051AF5A42D2B2DBB258BF5342FF2BC4F832
:100F8000D4657FF447AFD4F8DC3573B92046FFF75A
:100F90002BFD2046FFF740FDC4F8EC55C4F8F05592
:100FA0004FF0FF3003B0BDE8F08F0A2B05D141466A
:100FB0002046FFF78FFD01272CE7062B08D141467D
:100FC00004F2FC50FFF732FC012384F8F83521E7E6
:100FD0000B2B04D184F8E8654FF0010A1AE7F833C7
:100FE00054F8230000283FF415AF036841461B68FE
:100FF00098470FE76FF00300D4E7000000B5174CE7
:1010000089B0D4F8E810201D04F092FB0023C4F846
:10101000D435C4F8D835C4F8E035C4F8DC35FFF76A
:10102000B1FC0F4B009369460E4B039304A8FFF7E6
:1010300099FA0D48FFF76CFA04A90B48FFF792FAEA
:101040000A490B4804F0D2F904A8FFF761FA684690
:10105000FFF75EFA2046FFF7B9FEFBE79803002092
:10106000BD040008D07400086C030020A0860100B5
:1010700054030020F0B5632985B004460E4603DD15
:1010800090F8E855002D4DD0136804F213311B6819
:1010900010469847FF2384F80C33FE23C0F3072241
:1010A00084F80D33C3B284F80E331344DB4384F861
:1010B000116346F3072684F80F2384F8103384F86D
:1010C000126304F2113105220023861DB24204DCB2
:1010D00011F8015B01322B44F8E700F108052044C8
:1010E000DB43B5F5007F80F813330CDC04F5437760
:1010F0003E460434F31B9D4214DD16F8011B2046C6
:1011000000F014FEF6E7094B019303238DF8083035
:10111000074B0393236801AA1B68072120469847C1
:101120004FF0FF35284605B0F0BD00BF047400083D
:10113000F475000810B5044B044640F8043B00F079
:1011400039FD204610BD00BF7C74000810B5044670
:10115000503004F0F7F9204604F0F4F9204610BDB1
:10116000034610B107C983E807007047704742681B
:101170008168036812F0010F4FEA62021CBF8858B1
:10118000C35888181847D0F8E000704708B5006DBC
:1011900000F0C2F980F0004008BD38B583680268ED
:1011A0001A60C369826A1B0404460D46136000F08E
:1011B00097FF294604F1380002F07EFDBDE8384073
:1011C00000F0A4BF38B50368C2681B041360436A0B
:1011D000C2691A6004460D4600F082FF294604F1F8
:1011E000380002F069FDBDE8384000F08FBF07EE1F
:1011F000901AB7EE007AF4EEC77AF1EE10FAC0F862
:10120000E01003DB17EE101AFFF7C7BFFFEE006A0E
:10121000F4EEE67AF1EE10FA03D817EE101AFFF7A3
:10122000D1BFF5EEC07AF1EE10FAEDDCF1EE677A9F
:1012300017EE901AF3E738B52DED028B00F1540547
:10124000044690ED378AFFF7A1FF07EE900A78EE8B
:10125000677A284617EE901A00F052FB284600F0F5
:1012600055FBBDEC028B01462046BDE83840FFF738
:10127000BEBF0368C2681B0410B51360C369826AED
:101280001B041360044600F02BFF002104F138001A
:1012900002F012FD00F03AFF94F8D43033B104F1BB
:1012A000AC0004F0B7F8002384F8D4304FF07C5041
:1012B00004F06EFB0023C4F8E030C4F8DC30206D8D
:1012C000BDE8104000F044B9543000F015BA0000F9
:1012D00010B500F154042046094A0A4900F0A6F965
:1012E00020464FF07E52084900F0D4F920460021F4
:1012F00000F008FB20460121BDE8104000F0F4BAE0
:101300000000B4430000B4C3000080BFF0B589B052
:10131000154B00930446002304AD01930290134B38
:10132000039300F1AC076946284604F1C406FFF7B1
:1013300019F9AE4207D03046FFF7EAF81EB1294648
:101340003046FFF70FF942F21071384604F04EF8BC
:101350002846FFF7DDF86846FFF7DAF8012384F83E
:10136000D43009B0F0BD00BF37120008C0760008C5
:101370002DE9F3411C2604460D46904600213246D5
:101380001F4605F082FB29462046A51900F0A6FD60
:1013900032460021284605F078FB4146284600F0F9
:1013A0009DFD00F09DFE394604F1380002F09EFDDF
:1013B00000F0ACFE089B23650025124B00932A46E3
:1013C0004FF07E512B4604F1540000F0FFF904F178
:1013D000AC0004F063FA0C4BC4F8AC300023C4F842
:1013E000D03084F8D4302046C4F8DC50C4F8E05043
:1013F000FFF76EFF2046FFF789FF204602B0BDE8E9
:10140000F08100BF0AD7233C787C000838B590F8FB
:10141000D43004460D460BB9FFF778FFC4F8DC5012
:1014200038BD034610B107C983E80700704770470D
:1014300042688168036812F0010F4FEA62021CBF24
:101440008858C3588818184738B5044604F072F80D
:10145000054604F1500004F06DF894F8A03040EA1D
:101460004500C4F8B400B3B9D4F8B830032B02D1A6
:10147000D4F8B43033B1D4F8B8304BBBD4F8B4306E
:10148000032B25D1D4F8B0300133C4F8B030002399
:1014900084F8BD300CE0D4F8B430D4F8B820534010
:1014A000032B05D0D4F8B420D4F8B8309A4226D112
:1014B000D4F8B430C4F8B83038BD012384F8BD3056
:1014C0004FF0FF33D4F8B020D31AC4F8B030EFE7B0
:1014D000D4F8B830022B03D1D4F8B430012B07D0A4
:1014E000D4F8B830012BE3D1D4F8B430022BDFD1DB
:1014F000D4F8B030013BC4F8B0300123C8E7D4F8C9
:10150000B830D4F8B42083EA620313F00103D4D0D6
:10151000002284F8BD20D5E7D0F8A430D0F8A82068
:1015200090ED2C7ADFED097A5A43D0F8AC30B8EE62
:10153000C77A534327EE277A07EE903AF8EEE77A18
:10154000C7EE276A16EE900A704700BF0000B4434A
:101550000023C0F8B03070472DE9FF41044617461C
:1015600004F150051E4604F01DF83946284604F0E3
:1015700019F80A9BC4F8A4309DF82C3084F8A030E8
:10158000C4F8A860204603F0D5FF0646284603F0BD
:10159000D1FF40EA4600C4F8B400D4F8B430C4F82F
:1015A000B8306946DFF880801E4ECDF800800027F5
:1015B000204601970294039604F03EF86846FEF731
:1015C000A7FF69462046CDF8008001970294039654
:1015D00004F058F86846FEF79BFF94F8A030F3B18A
:1015E00069462846CDF8008001970294039604F0DE
:1015F00023F86846FEF78CFF69462846CDF8008040
:1016000001970294039604F03DF86846FEF780FFC8
:1016100004232046C4F8AC3004B0BDE8F0810223B6
:10162000F7E700BFCC7600084914000806EE901AD0
:1016300007EE102AF4EEC76AF1EE10FA20DAD0EDC8
:101640000E7A90ED126A77EE665A85EEA75AD0EDC3
:10165000097A26EE056A65EE277A80ED126AB7EE02
:10166000006AF4EEC67AF1EE10FAC0ED097A08DDF0
:1016700080ED096AC0ED0C6A80ED0D7AC0ED0E5A5E
:101680007047F5EEC07AF1EE10FA44BF00234362D2
:10169000F0E7000006EE901A07EE102AF4EEC76A93
:1016A000F1EE10FA18DA90ED116A77EE665AC5EE8F
:1016B000867A90ED0B6A67EE867AB7EE006AF4EEF2
:1016C000C67AF1EE10FA08DD80ED0B6AC0ED0F6A04
:1016D00080ED107AC0ED115A7047F5EEC07A9FED9B
:1016E000056AF1EE10FA48BFF0EE467AC0ED0B7ACB
:1016F000ECE700BF00000000D0B52DED048B08EE34
:10170000101AB5EE408AF1EE10FA044607EE902A60
:1017100008EE903A9FED2B9A3CD0F4EEC97AF1EEA8
:1017200010FA37D4F4EEC98AF1EE10FA32D4F4EE9E
:10173000497AF1EE10FA21616261A3612DD0104661
:1017400004F0ACFC02460B4600201F4904F024FEC6
:101750000646206D0F4604F0A1FC02460B463046BB
:10176000394604F0EFFC04F0FFFE07EE900A6378C0
:1017700033B1F5EE407AF1EE10FA11D184ED129A00
:1017800094ED147AC4ED027AC8EE877A84ED018A6A
:10179000C4ED037ABDEC048BD0BDF0EE497AE6E7E8
:1017A00094ED027AD4ED016A66EE876A28EE277A14
:1017B00086EE876A94ED127A27EE067A84ED127A25
:1017C000DEE700BF000000000000F03F10B5044657
:1017D00094ED0E7ADFED327AD4ED126A87EE876AE5
:1017E00000202070607094ED097A66EE866A26EE1D
:1017F000077AC4ED126AF7EE006AB4EEE67AF1EE0B
:1018000010FA2DED028B84ED097A9FED268A35DDE5
:10181000C4ED096A94ED116A84ED0C8A87EE867A2C
:1018200094ED0B6AC4ED0D7A27EE067AC4ED0E7ABC
:10183000B4EEE67AF1EE10FA28DDC4ED0B6A0498F6
:1018400084ED0F8A2065C4ED107A2046C4ED117A2C
:10185000FFF752FF84ED078A84ED088A84ED098A38
:1018600084ED0A8A84ED0B8A84ED128A84ED138A52
:1018700084ED158ABDEC028B204610BDB5EEC07A12
:10188000F1EE10FA48BF84ED098AC3E7B5EEC07ADD
:10189000F1EE10FA48BFB0EE487A84ED0B7ACEE74D
:1018A0003333534000000000037890ED0F7AD0ED01
:1018B000116AB3B1D0ED137A77EEC77A002387EEC1
:1018C000A67A8364D0ED087A80ED0B7A90ED0C7ADD
:1018D000D0ED0E6A77EEC77A87EEA67A80ED097AA8
:1018E0007047D0ED157AE7E708B5024619B143789D
:1018F0000BB9FFF7D9FF003118BF0121517008BDA6
:10190000016270470123C1640370704790ED0C5A67
:10191000D0ED087AD0ED0E5A9FED464A77EEC57AA3
:10192000B7EE007AC7EEA56AF4EEC76AF1EE10FAD8
:101930006CDCF4EE446AF1EE10FA48BFF0EE446A53
:1019400090ED076A36EE456AC6EE257AF4EEC77A60
:10195000F1EE10FA5DDCF5EE407A9FED366AF1EEBD
:1019600010FA48BFF0EE467A90ED0B6AB4EEC76A03
:10197000F1EE10FA77EEE67A04DBF5EEC07AF1EEDE
:1019800010FA0FDCB5EEC06AF1EE10FA04D8F5EEED
:10199000C07AF1EE10FA05D490ED126A36EE276A9D
:1019A00080ED126A90ED096AD0ED145A037890ED3B
:1019B0000F5AD0ED114A36EEC66AC6EE253A5BB331
:1019C000D0ED135A75EEC55A85EEA46AD0ED125AC1
:1019D00090ED023AE3EE257AD0ED035AE3EEE57A94
:1019E000D0ED015AA5EEA76AB5EEC06AF1EE10FA85
:1019F00015D580ED0A4AD0ED0A7AC0ED096AA7EE46
:101A0000A45AC0ED0B7A15EE100A7047F0EE476A43
:101A100096E7F7EE007AA7E79FED066AD6E7B4EE01
:101A2000C76AF1EE10FAD8BFB0EE467A80ED0A7AB6
:101A3000E1E700BF000000000748084A08B5121A95
:101A4000002105F022F804F071F804F071FF04F0B1
:101A500074F804F0AFF800BF40020020882C00208A
:101A600008B5012004F0A6F808B5FFF7F9FF00005B
:101A700030B502680D68044CB5FBF4F31A4404FB5E
:101A8000135302600B6030BD00CA9A3BD0F8C020EF
:101A9000D0F8C400101A18BF012070470120704709
:101AA00010B5D0F8C420D0F8BC100346501CC3F8C1
:101AB000C400885CD3F8C820D3F8C440013AB4FB12
:101AC000F2F102FB1142C3F8C42010BD034610B16D
:101AD00007C983E807007047704742688168036858
:101AE00012F0010F4FEA62021CBF8858C3588818D1
:101AF000184730B5044685B000F14C05284602F081
:101B00001DFD30B3D4F8D020D4F8D4309A4216D08A
:101B1000D4F8D430D4F8CC20591CC4F8D410D15CFB
:101B2000D4F8D830D4F8D400013BB0FBF3F203FB77
:101B30001203C4F8D430284602F00AFDDEE7002381
:101B4000204601226946039303F06EFE6846FEF7C5
:101B5000DFFC05B030BDC36810B504460BB19B680F
:101B60009847204610BD000070B506460B4B46F85E
:101B7000983B044646B100F1B805B54204D0103D8B
:101B80002846FEF7C5FCF8E704F13800FFF7E3FF4D
:101B900004F12800FFF7DFFF204670BDB47C000889
:101BA00010B50446FFF7E0FF204604F01FF820467A
:101BB00010BD000030B5134B036085B000252A46E8
:101BC00069460446039503F02FFE6846FEF7A0FC25
:101BD000012269462046039503F026FE6846FEF77B
:101BE00097FC04F1CC0000F023F904F1BC0000F0F4
:101BF0001FF9054B23602046FFF7B6FF204605B0CE
:101C000030BD00BF687700088C7C000810B5044622
:101C1000FFF7D0FF204603F0E9FF204610BD00008B
:101C200010B586B08DE80C00019B029203930491DD
:101C3000054B9DF82020059302A903F0F5FD02A8AD
:101C4000FEF766FC06B010BDD87600087FB50446E6
:101C50001D464FF41653089E03F04EFC20460F4BD2
:101C600040F8BC3B294600F0F2F806FB05F104F110
:101C7000CC0000F0ECF80A4B02930023039300938E
:101C800004AB204613E90C002146FFF7C9FF2046AC
:101C9000C4F8DC50C4F8E06004B070BD6877000898
:101CA0000B1D000870B5044686B04C3002F046FCAF
:101CB000C0B102AD0122294600262046059603F058
:101CC000B3FD2846FEF724FC2046FFF712FF064B23
:101CD000029301230396009395E80C0021462046C9
:101CE000FFF79EFF06B070BDF31A00084368026854
:101CF00010B55C1C4460D154C3684168013BB1FB22
:101D0000F3F203FB1213436010BD38B500F14C052C
:101D10000446284602F0F6FB38B1284602F0FCFBE8
:101D2000C1B204F1BC00FFF7E1FF38BD38B505468C
:101D30000C46CC30C9B2FFF7D9FF2846FFF7B2FFF7
:101D4000204638BD2DE9F04107460C46B1B10D469D
:101D500000F1CC082E4616F8011B21B14046FFF7D2
:101D6000C5FF3546F6E70A214046FFF7BFFF2C1BAB
:101D70003846FFF797FF601CBDE8F0810846BDE8D4
:101D8000F0812DE9F04107460D4691B1A2B18C18C2
:101D90000E4600F1CC08B44205D016F8011B4046AF
:101DA000FFF7A4FFF7E73846FFF77CFF601BBDE8AD
:101DB000F0810846BDE8F0811046BDE8F0810000E2
:101DC0000EB42DE9F04185B0D0F8DC2002AFD31D70
:101DD00023F0070307F12404ADEB030D54F8048B43
:101DE00002AE05460021304604F04FFE2246414631
:101DF00030467C6005F036F9D5F8DC308342024687
:101E00000CD200905D220848084900F093F90020A8
:101E10000C37BD46BDE8F04103B070473146284657
:101E2000FFF7AFFFF4E700BF23770008E476000870
:101E300010B50446006808B103F0D4FE204610BD7A
:101E400000214160C2688160006804F01EBE38B5A0
:101E5000044608460D4603F0B9FEE56020602046C2
:101E6000FFF7EEFF204638BD70B50E460446154616
:101E700001F084FE013609D02046002101F0A2FEC7
:101E800029462046BDE8704001F098BE70BD38B5C7
:101E900004460D4603685AB182681360204601214A
:101EA00001F090FE29462046BDE8384001F086BE8C
:101EB000C2681B04F1E70022FFF7D6BF70B50E46DB
:101EC0000446154601F05AFE013606D02A46204641
:101ED0000021BDE87040FFF7DABF70BD0022FFF7B8
:101EE000EDBF00000048704794770008014800F0FB
:101EF0000CB800BF9477000838B5036804461B6827
:101F00000D46984763681D6038BD036870B5DB688F
:101F10000446984763685A6823681AB99B68BDE805
:101F2000704018475B68156898476368281A00284E
:101F30005A6807DC916859601B68002BEAD050682A
:101F40009847E7E7236810681B69BDE870401847A9
:101F5000F8B506460C461F46154600F0C1F87068F5
:101F600084E8A0004368002153B9A36079B93368BD
:101F700044601B6928469847BDE8F84000F0C6B8A1
:101F80001A68AA1A002AF0DB19469B68ECE78C60F5
:101F9000F2E738B505460C4600F0A2F86A685368C7
:101FA000A3420ED19B6853602A682BB99368984767
:101FB000BDE8384000F0AAB8126918689047F7E702
:101FC0001346002BF4D09A689442F9D1A2689A6023
:101FD000EEE703685B68184710B5044601300DD181
:101FE00010BD9C4209D12046896802F04DF8204678
:101FF0000021BDE8104002F0CBB80C31B1F900303F
:102000005A1CEED10248BDE8104000F093B800BF62
:10201000FF770008884208B508D0431C06D001317C
:1020200006D0044800F086F84FF0FF31084608BD9E
:102030000146FBE7CE770008B1F900305A1C01D108
:1020400018467047834201D1486870470C31F3E766
:10205000421C10B5044607D0FFF7EEFF431C0446B0
:1020600002D1024800F066F8204610BDDF77000874
:10207000B1F900305A1C01D118467047834201D192
:10208000886870470C31F3E7421C10B5044607D04E
:10209000FFF7EEFF431C044602D1024800F04AF865
:1020A000204610BDB077000800B589B000F018F8E0
:1020B000052101A8FFF712FF039B019A1A609620E1
:1020C00003F074FC019B049A1B041360962003F038
:1020D0006DFCF1E7EFF31080C04300F001007047A2
:1020E00008B5FFF7F7FF72B6064B1A6822B980F001
:1020F0000100054AC0B210701A681A6801321A60ED
:1021000008BD00BF200B00201C0B002008B5074BAA
:102110001A6852B1FFF7DEFF1A68013A1A601B68AD
:102120001BB9034B1B7803B962B608BD200B002016
:102130001C0B00200FB4012008B503F03BFD01F09B
:102140006ABD000008B5024C23689847FCE700BF51
:10215000A401002008B50B4800F09CFD0A4B186054
:102160000A4800F097FD0A4B18600A4800F092FDFB
:10217000094B186004F0DCFB00210846BDE808406C
:1021800003F0DBBC5C7800086C2400205878000861
:102190002C0B002054780008240B0020FFF7D2BF3E
:1021A00010B5044600F0E4FC21460246BDE81040AC
:1021B0000148FFF7BFBF00BF1C78000803F018BD3F
:1021C0000B4A0C4B0C4830B41A60C2F1005303F5B3
:1021D0000033B3F5806F194628BF4FF48061074D77
:1021E000074C01605B1A1A442A60236030BC7047B8
:1021F000882C002088210020300B0020340B002088
:102200008421002000F01AFEFFF7DAFF03480021C6
:1022100000F0C8FD00F02EFCFEE70000A801002041
:10222000024B4FF0FF31186800F052BD2C0B00201C
:10223000014B186800F074BD2C0B002030B50278FB
:102240008C784368013AD2B213B19D78A54207D287
:10225000022A4B60416006D803B19960886030BDA6
:1022600018465B68F0E700238B6030BD0278436856
:10227000013A59684160022A4FF0000205D809B1BD
:1022800088605A609A60184670475A60FBE7000001
:10229000034B5A684260002282605860704700BF5A
:1022A000602B0020104BDA6810B58AB19A8ADC687E
:1022B0008A420CD3C460D860C468036104B1206151
:1022C000521A92B28282998A8A1A9A8210BD3CB9B5
:1022D00000248A1AC460D86003619A82848210BD87
:1022E000A38A1A442346E2E7782B00202DE9F04127
:1022F000174DEB6853B1AB8A164FDFF85C80013B9A
:10230000AB820026AA8A0AB9EC680CB9BDE8F08154
:10231000A36833B161685960616809B18B6062601C
:10232000A66021463846FFF789FFA38AAB8263780F
:10233000042B01BFD8F80030E28A9B18A382012346
:102340006370E368EB600BB11D61E6602661D9E75D
:10235000782B0020602B0020F42B002083682BB109
:1023600042685A6042685AB193607047054B5A6898
:10237000904202D142685A6070471346002AF6D153
:10238000704700BF602B002010B5846801462CB94F
:102390004378012B0DD1074C03E0A4682378002B70
:1023A000FBD00846FFF7DAFF2046BDE81040FFF7F4
:1023B00045BF10BD602B0020036910B563B1C26832
:1023C000DA60C2684AB1998A848A21449982136189
:1023D0000023C3600023036110BD9A82FAE7000066
:1023E00070B4114BDD78EFF31086EFF3108272B604
:1023F0009A78954211D901329A701A78541CA542E4
:1024000008BF00241C7006B962B6954207D903EBD9
:10241000C20370BC586099607047002EF4D002204F
:1024200070BCFFF7BDBE00BFE4230020836A9B0899
:1024300004BF224B1B88F0B5056B08BF9B0805EB5A
:102440008302540748BF043A4FF0807602E9420005
:10245000A2F14004A2F14406A2F10C074FF0000ED5
:1024600046F804EFBE42FBD1C66942F8206C4163D6
:102470001249C4620968C90017D5112B15D9103B40
:102480006FF007015B084B43A3F138010A444FF09A
:10249000CC30214691420BD108331C44231F9D426E
:1024A0003CBF4FF0CC3344F8043C054B2B60F0BDEF
:1024B00041F8040C41F8080DECE700BF647800080F
:1024C000A52E5AE290F82520C36A12B16033196034
:1024D00070472033FBE710B590F82540C36A1CB164
:1024E000603383E8060010BD2033FAE7054B1B7804
:1024F00023B9054B4FF080521A607047034B0122FD
:102500001A707047881B002004ED00E0891B002032
:1025100038B51A4B1A4C186801234370FFF7B8FE00
:102520006578A3783BB917486570FFF79FFEBDE853
:10253000384000F05DBD04EBC503586802789AB9D5
:10254000198900F0BBF9E37801359D4208BF0025E9
:10255000EFF31083EFF3108272B6A278013AA27003
:10256000002BDED162B6DCE7012A03D1996800F0C6
:1025700033F9E8E701F044F8E5E700BFAC2B0020B1
:10258000E4230020602B0020084B1A68084B1A60D7
:1025900000225A60072243F8042C064A136843F0CD
:1025A0007F4313604FF0FF30704700BF7C78000816
:1025B00014E000E020ED00E07047000008B50B4B90
:1025C000186801234370FFF763FE00F0ADF9084A75
:1025D000136801331360FFF789FE00F091FC054892
:1025E000FFF744FEBDE8084000F002BDAC2B002020
:1025F000F42B0020602B0020064B1A68136BD26A64
:10260000934203D81A68044B9A4202D00120FFF784
:10261000C7BD7047AC2B0020A52E5AE2002ABBBFD5
:1026200022F000420732033222F00702A8BF22F054
:10263000030210B5B4BF10230C2392B1D4188C42FE
:102640000FD8014403445442416003608260214436
:102650009818814202D300510346F9E70020186020
:1026600010BD012010BDEFF3108372B6026803F0B5
:1026700001030AB11168016003B962B610467047E0
:1026800081420DD3436899420AD2EFF3108372B6A8
:1026900002680A60016013F0010003D162B670475E
:1026A000012070470020704701231039037089080A
:1026B0000023437083704360038143818381C18120
:1026C0007047000070B5858904461646002D38D045
:1026D00043891A1D013350F822200A60C2899BB237
:1026E0009A42438104BF002343814368F3B1437896
:1026F000022B1BD1FFF7BAFD00210546FFF7E2FED2
:102700002389E9691A1D013344F82210E2899BB23A
:102710009A42238108BF0023284608BF2381FFF780
:102720004BFE284600F07EFC002070BDEFF31080C9
:10273000EFF3108372B6013DA5810028F4D162B693
:1027400070BD4AB14268094B42B11968FFF776FD86
:102750000821304600F08AFC012070BD1B684360F0
:102760005A60986001234370F2E700BFAC2B002051
:10277000C2898089101A704708B5FFF731FEBDE89D
:102780000840FFF7B3BE838910B504460BB34389F5
:10279000043350F823300B604378022B04D100211E
:1027A000FFF71EFEFFF7A2FEEFF31083EFF3108298
:1027B00072B6A289013AA28103B962B66389E2893D
:1027C00001339BB29A42638101D1002363810420CB
:1027D00010BD184610BD0000436870B504460E4693
:1027E000002B4BD04578022D20D0032D0AD0012D8F
:1027F00061D1FFF73BFD044632461021FFF76BFE27
:1028000065700EE00846FFF72EFF0546002852D0FF
:102810002046FFF72BFD29460446FFF753FE012310
:1028200063702046FFF7C8FD214622E0FFF71EFD3A
:1028300000210546FFF746FE2389E9691A1D44F881
:102840002210EFF31082EFF3108172B6A1890131EB
:10285000A18102B962B6E28901339BB29A42238117
:1028600004BF0023238101236B702846FFF7A4FDDA
:1028700029461148BDE87040FFF7E0BC8089E18936
:10288000884213D223891A1D44F82260EFF3108284
:10289000EFF3108572B60130A08102B962B6013340
:1028A0009BB2994208BF0023238170BD0320BDE87D
:1028B0007040FFF775BC70BD602B002010B5038B16
:1028C00042781943062A04460183438B15D133EA23
:1028D000010219D121EA030121832046FFF76CFD93
:1028E000012320466370628B0821FFF7F4FD214627
:1028F0000648BDE81040FFF7A1BC052A04D111EA43
:10290000030201D04283E5E710BD00BF602B002029
:10291000034B00221A60034A1268DA80704700BF36
:10292000982B00206078000808B50E4B5A680E4BB3
:10293000196891420D4905D01A60DA880868013A91
:1029400002449A8098880A8890420AD10022054859
:102950001A60FFF78BFCBDE8084001460148FFF70D
:102960006DBC08BD602B0020982B0020F42B0020AC
:102970000B4A136830B5002443B90360816013B17A
:102980009D68691A996044B1206030BD9D68A94274
:10299000F3D31C46491B1B68EEE7106030BD00BF37
:1029A000A82B0020C0B1431C11D00C4B984211D869
:1029B0000B4B1B684FF47A715A1E01FB0020B0FBD1
:1029C000F3F34FF6FE70834206D898B270474FF685
:1029D000FF7070474FF6FE70704700BF00093D0062
:1029E0001878000838B1830704D10378002B18BF8A
:1029F0000020704700207047B0B50E4D287800AF1A
:102A0000A8B90D4C236893F8241000F051FB2368FB
:102A1000DA78FF2A03D1DA6A203282F30988626801
:102A20000AB984E80C0000F0FBFC01232B700020A5
:102A3000B0BD00BFA52B0020AC2B0020014B1878A7
:102A4000704700BFA52B002010B5EFF3108434B9F8
:102A5000EFF305841CB9EFF31484E40702D4034BAD
:102A6000187810BDDFF808C000DF10BDA52B0020CE
:102A70003D2A000890B589B000AFEFF31083002B1A
:102A800037D1EFF30583002B33D1FFF7DDFF28B9F2
:102A9000194C246814B1646804B1A047EFF314849E
:102AA00004F00304022C18D0032C1CD0012C1ED0DF
:102AB00007F1200484F30988104C2478E40710D52A
:102AC000022484F31488BFF34F8FBFF36F8FDFF8B6
:102AD00030C000DF2437BD4690BD084C2478E407A1
:102AE000F5D40324EDE7054C2478E407EFD5FF2067
:102AF000F0E78220EEE700BF942B00204678000824
:102B0000F929000870B50B461646024610B9002494
:102B1000204670BD00680028F9D0B2F90440E51CD9
:102B2000ADB2062DF3D8D168C1B11269043444EABC
:102B3000012100F0FBFA0028E9D00A4B0A4A0138CB
:102B400053F82040E36A5A63084B1B6843B19B6803
:102B500033B13146E0789847E063D9E70A46E5E7C4
:102B6000E663D5E7A8230020F12C0008942B002071
:102B700008B500F095FA18B10138024B53F820005F
:102B800008BD00BFA823002010B5FFF72BFF0446A7
:102B900070B1084B1B681BB1DB680BB1C06B984769
:102BA000E07800F019FBFF280CBF8120002010BD49
:102BB000802010BD942B002008B528B1FFF7F2FE4D
:102BC00000F01AFD402008BD08BD000010B5EFF36D
:102BD000108434B9EFF305841CB9DFF80CC000DFB2
:102BE00010BD822010BD0000B92B0008830705D15D
:102BF00038B1436901691B681846704700231946BC
:102C0000FAE70346FBE7000010B504460846DFF884
:102C10000CC000DF84E80300204610BDED2B000847
:102C200010B548B1046824B1237823B9204600F0D8
:102C30003DFC204610BD002010BD70B510F003040F
:102C400005460E4611D180B10378032B0DD10846FD
:102C5000FFF7A8FE0146284600F0A0FC012806D197
:102C6000002E14BFC120812070BD802070BD204681
:102C700070BD820708B50AD148B10378032B06D18D
:102C800000F01CFCFF280CBF8120002008BD802024
:102C900008BD000070B50546EFF3108494B9EFF35A
:102CA00005867EB9EFF31484E40706D4064C247835
:102CB0001CB9BDE87040FFF7B3BF2846DFF80CC071
:102CC00000DF70BD002070BDA52B0020212C000866
:102CD00010B5EFF3108434B9EFF305841CB9DFF8B5
:102CE0000CC000DF10BD822010BD00003B2C00088E
:102CF000084808B54FF0FF310068FFF7E9FFDFF83B
:102D000018C000DF0446FFF759FA2046DFF80CC070
:102D100000DFFEE7A02B0020712B0008892B0008A4
:102D200010B5EFF3108434B9EFF305841CB9DFF864
:102D30000CC000DF10BD822010BD0000732C000805
:102D40002DE9F04180460F461646EFF3108404BB90
:102D5000EFF30583D3B9EFF31483DB0706D40E4BEF
:102D60001B781BB9BDE8F041FFF7CCBE0B4D4FF00F
:102D7000FF312868FFF7ACFF404639463246DFF89E
:102D800020C000DF04462868FFF7CAFF2046BDE8E0
:102D9000F0810024FAE700BFA52B0020A02B002023
:102DA000052B00080022FFF7CBBF10B5044660B129
:102DB000016851B1406848B1037833B904318900E2
:102DC00089B2FFF771FC606810BD002010BD0000E3
:102DD00038B5114C23780BB900F0A8FA0F4B2578C1
:102DE0001B68FF229A708DB929460D48FFF7DDFF59
:102DF0000C4B2A46186029460B48FFF783FE0B4B05
:102E000018600B48FFF746FF0A4B18600123237038
:102E1000094B0020187038BDA42B0020AC2B0020DB
:102E20004C78000868240020687800085C2B00209B
:102E300080780008A02B0020A52B002010B5EFF310
:102E4000108474B9EFF305845CB9EFF31484E407DC
:102E500003D4BDE81040FFF7BBBFDFF80CC000DFB4
:102E600010BD822010BD0000D12D00082DE9FF41CA
:102E70000C46804618B30378012B25D10846FFF78E
:102E800091FD02A902464046FFF71CFC012811D122
:102E90000020002C0246034618BF40200299044639
:102EA0000D4616461F462046294632463B4604B08C
:102EB000BDE8F0810020024603461020EEE78024A2
:102EC000054606460746EEE7002580242E462F4697
:102ED000E9E770B50E461446054660B15AB9037865
:102EE000012B08D1FFF744FC38B128463146FFF7E3
:102EF00043FC204670BD802070BD812070BD000065
:102F0000F8B5114E34682CB1A368104F013BA36093
:102F1000A26802B1F8BD2568386835602146FFF720
:102F2000D8FF10B10420FFF73BF96379012B07D1DB
:102F3000E1682046FFF71CFD002DEBD02C46E7E7AB
:102F400001232371F8E700BFA82B0020682400208C
:102F50007FB504461646084601B122B1802323609E
:102F6000204604B070BD0B78012BF7D102A9FFF702
:102F70000AFC042808BF102301AD14BF0196019379
:102F800095E8070084E80700EAE7000038B5044642
:102F90001546EFF3108010B9EFF3058028B12A46EB
:102FA0002046FFF7D5FF204638BD08461146DFF81A
:102FB0000CC000DF84E80700F5E700006D2E000874
:102FC0007FB50A4C21684FF0FF3203A8FFF7DEFF00
:102FD000039B102BF6D1049901A8FFF715FE019B66
:102FE000002BEFD002989847ECE700BF6824002040
:102FF000054B586002234370044B1B681BB11B69CF
:103000000BB1C06B18477047AC2B0020942B0020ED
:1030100008B50348FFF72AF9BDE80840FFF7E8BF05
:10302000602B002070B5044618B9BDE87040FFF76A
:10303000EFBF0C4EA278306883789A424FF00105BA
:1030400008D9FFF725F933685D702046BDE8704068
:10305000FFF7CEBF657021460348BDE87040FFF71B
:10306000EDB800BFAC2B0020602B002038B50D461A
:10307000014680B14FF6FF739842074C02D020689A
:10308000FFF710F9236805485D70FFF7EFF8BDE81A
:103090003840FFF7ADBF38BDAC2B0020602B0020BF
:1030A000024B186800B1C078704700BFAC2B0020FD
:1030B00010B5A8B9194B1B68997083F824101848EB
:1030C00043689B788B4201D8002010BD134C2168C7
:1030D000FFF7B4F8236801225A70FFF799FFF3E76E
:1030E000104B1B88984217D801380F4B53F82040DB
:1030F00094B10A4BA1701B6884F824109C42DED066
:103100002046FFF741F96378012BDDD10448FFF732
:10311000ADF8FFF787FFD7E7FF2010BDAC2B0020ED
:10312000602B002048780008A82300202DE9F047F4
:1031300011F0FF0F0D468046234816469A4608BFF9
:103140000135FFF790FA044620B94FF000094846D0
:10315000BDE8F0871D4B06631B881D4E280AA06240
:1031600000218B4201F10109EFD006EB89020F46E5
:1031700052F8042C4946002AF3D1EDB2012384F819
:103180000390C4F81CA0C4F838A022706370A57026
:1031900084F824506260A260E26022612262A2820E
:1031A000E2822283628384F8252018B90948FFF758
:1031B0005AFA206320464146FFF738F9204646F880
:1031C0002740FFF72FFFC2E790270020487800082C
:1031D000A8230020982100202DE9F84F4D4D18B16B
:1031E0002B68DB78984241D12C68DFF83C810023C2
:1031F000637002F00AFDE062FFF7FEF92B681C6ABB
:103200000127A4B92A684449D3784448013B41F8CE
:103210002340116BFFF734FA296841480C63FFF72C
:103220002FFA2C60FFF7F4FE2046BDE8F88F6368A4
:10323000B3B12046FFF71AF800210646FFF742F91E
:103240003046FFF7B9F8777031464046FEF7F6FF93
:10325000E368326A6780A660E26034621C46D0E7A9
:10326000E2686380A360E3601446CAE72D4B1B88C5
:1032700098424DD8284B471E994653F82760002E98
:1032800046D03046FFF76AF83046FFF795F8DFF88A
:1032900098B0346A4FF0010AB4B9316B1F4849F84D
:1032A0002740FFF7EDF9314634631D48FFF7E8F991
:1032B0001D48296843689A788B789A42B4D90123CB
:1032C0004B70FEF7BBFFADE76368DBB12046FEF74E
:1032D000CDFF00218046FFF7F5F84046FFF76CF878
:1032E00088F801A041465846FEF7A8FFE368D8F8E1
:1032F0002020A4F802A0C4F80880E260C8F82040AA
:103300001C46C9E7E2686380A360E3601446C3E734
:10331000FF2489E7AC2B0020A8230020982100205F
:103320009027002048780008602B002038B52C4BEF
:103330002C491A880023184693424DD32A4B2B4818
:1033400019882B4C4022FFF769F92A4B2A481A8822
:103350002A4B42F000421968FFF760F9284B1988A0
:10336000284B08221868FFF759F9FF230025E3705E
:103370002148A562012363702570A57084F824504C
:103380006560A560E56025612562A582E5822583EB
:10339000658384F82550FFF766F91B4920632046B2
:1033A000FFF744F8194B04221A705D60184B1A702D
:1033B000DD601D619D82174B20461C6002236370F7
:1033C000FFF716FE144A154B12781D705D70DA7007
:1033D000BDE83840FFF79CBA41F823000133ABE762
:1033E00048780008A82300201478000890270020BF
:1033F000B42B002064780008982100201078000881
:1034000016780008280B00209D210008602B002062
:10341000782B0020AC2B002045780008E423002006
:1034200008B51E4B1A6842F47F021A601B681B0223
:1034300003F07F43DB43B3FA83F3194A1948126858
:103440000168DBB2C3F10803C2F30222934298BFC2
:10345000531C6FF0807202FA03F303F07F4321F0F4
:103460007F4213430360FFF78FF80F4B002818606B
:1034700012DB00F1604000F56440FF2202701A6820
:1034800053099B0003F1604303F5614302F01F02FF
:10349000012101FA02F21A6008BD00BF20ED00E030
:1034A0000CED00E01CED00E0902B002003230370E6
:1034B0000023438043608360C36070472DE9F84375
:1034C00043880546002B63D0324F81683A689142A9
:1034D0005ED1013B9BB243801BB100242046BDE876
:1034E000F8830B6A984229D1C3680B6291F82430A3
:1034F0000C6A5CBB8B706A68DFF89C80002A3BD04A
:103500002846FEF7B3FE21460646FEF7DBFF3046AF
:10351000FEF752FF336AEB604FF001093968D8F8C3
:103520000430A5F80290AE6035628A789B789A42A2
:1035300014D33046FFF776FDD0E71346002BD5D0E5
:10354000DA689542F9D1EA68DA60CFE762681AB1C1
:103550009278934238BF1346E468CAE74046FEF7C4
:103560006DFE31464046FEF769FE3B6883F80190E8
:1035700086F801902046DDE7D8F8042092789A4238
:10358000ABD94046FEF75AFE3B6801225A70F1E77C
:10359000FF24A3E7AC2B0020602B0020438870B5EC
:1035A00004460E46134D43B92A688260116AC16011
:1035B000106201336380002070BD80682A689042E9
:1035C000F7D081B1937882789A4202D28370FEF765
:1035D000DBFE62684AB129682046FEF72FFE09210A
:1035E0003046FFF743FD012070BD2B6863605A60D1
:1035F0009C60F4E7AC2B00200321FFF737BD0000EF
:10360000426810B57AB1FEF731FE0446FEF7D4FEEB
:10361000012161702046FEF755FF21460448BDE8B0
:103620001040FEF70BBE42880132428010BD00BF41
:10363000602B002070B5134C23681A69950707D5D5
:10364000DA68900704D56FF002021A61FEF74EFCAB
:1036500023681A69510713D5DA68520710D56FF03D
:103660000402094E1A615D6A3368EB1AB3F57A7F7A
:1036700006D301F09FFE236805F57A729A633560E0
:1036800070BD00BFF82B00209C1B002030B589B016
:1036900001A903A801F056FE01F024FE00230293C5
:1036A000244B01901A6C244C42F008021A641A6CE4
:1036B00002F008020292029A1A6A42F008021A62A2
:1036C0001A6A22F008021A62069AA3F50B332360E5
:1036D0004FF0FF33E360194B4ABBB0FBF3F0013806
:1036E0000025606014482561A560656101F03CF922
:1036F0001349322001F056F8124B0F484FF4802244
:103700005A60294601F014FA04210B4801F010FA1E
:1037100023680D4A596A1160126802F57A729A6339
:10372000DA68284642F00402DA6009B030BD400091
:10373000D3E700BF00380240F82B002040420F00C2
:103740003536000800E100E09C1B0020034B044AD2
:103750001360DA6822F00402DA607047000C00405F
:10376000F82B0020034B044A1360DA6842F004028D
:10377000DA607047000C0040F82B0020F8B54C26AA
:10378000134B4643341D0F461C4400251E44BD42C6
:1037900000D1F8BD0121336801FA05F21A4213D0B5
:1037A0000C4A236B506901FA03F303420CD0D4F89E
:1037B00018E05361206838B1DEF810201342064B40
:1037C00008BF02211B68984701350434DFE700BFBA
:1037D000A01B0020003C0140B41D0020012100205E
:1037E000FFF7CCBF01210846FFF7C8BF0121022027
:1037F000FFF7C4BF01210320FFF7C0BF0121042050
:10380000FFF7BCBF05210846FFF7B8BF06210846F1
:10381000FFF7B4BF012910B510D1144C838932B120
:10382000A26803F00F0399401143A16010BDA26884
:1038300003F00F03994022EA0101F6E702290AD1B9
:103840000A49838942B1C86803F00F03012202FAD2
:1038500003F30343CB6010BDCA6803F00F030120DC
:1038600000FA03F322EA0303F4E700BF003C01403F
:10387000B0F90C309AB202F00F0170B501F00C04EF
:1038800004F1804404F59C3402F00302A568920020
:103890000F269640C3F30313934025EA0605094A11
:1038A0002B43A3601468012303FA01F12143116043
:1038B00090F90020510902F01F029340024A42F899
:1038C000213070BD003C014000E100E02DE9F04FE7
:1038D0009B464B1C85B007460C46924664D000239D
:1038E0000393324B5A6C42F480425A645B6C304A08
:1038F00003F480430393039B01F00F080C2303FBA5
:103900000823C1F303105D68062D45D8DFE805F0F4
:1039100004383A3C3E404200264E019200F0B4F892
:103920000C21019ABC8101FB08F1531852F801E007
:10393000214993F908C087F800C04C226A4301244A
:103940008B587D6004FA0EF41C434FF00009C7F851
:1039500008908C50132202FB05E501EB85023146ED
:10396000D061C2F804B0C2F83480144A6046C2F88C
:1039700000A000F017FF3846FFF77AFF484610E036
:103980000F4ECAE70F4EC8E70F4EC6E70F4EC4E70B
:103990000F4EC2E70F4EC0E70F48FEF7CBFB4FF0CC
:1039A000FF3005B0BDE8F08F0846FAE70038024066
:1039B00098790008DD370008A01B0020B41D002006
:1039C000E5370008ED370008F5370008FD37000837
:1039D000053800080D3800088478000810B5838980
:1039E000124C0122216803F00F0302FA03F321EACB
:1039F0000303236090F900300D4C5909203103F086
:103A00001F0302FA03F344F82130BFF34F8FBFF3D3
:103A10006F8F90F90030590903F01F039A4001F1AC
:103A2000600344F823200023836010BD003C014064
:103A300000E100E0838903F00F020C235343104A96
:103A400070B54468D658FFF7C9FF4C210D4A614351
:103A5000012000FA06F55058132303FB046320EA03
:103A60000500505002EB830000214160981D0C338B
:103A700002EB800002EB83034160596070BD00BF20
:103A800098790008A01B00207FB50023072855D88F
:103A9000DFE800F00413202D3A54544700932A4BDA
:103AA0002A481A6B42F001021A631B6B03F00103F0
:103AB0000093009B07B05DF804FB0193224B244860
:103AC0001A6B42F002021A631B6B03F002030193AC
:103AD000019BEFE702931C4B1E481A6B42F0040255
:103AE0001A631B6B03F004030293029BE2E7039348
:103AF000154B19481A6B42F008021A631B6B03F04E
:103B000008030393039BD5E704930F4B13481A6BE9
:103B100042F010021A631B6B03F010030493049B22
:103B2000C8E70593084B0E481A6B42F080021A63EF
:103B30001B6B03F080030593059BBBE70948FEF769
:103B4000F9FA0020B6E700BF00380240000002404A
:103B50000004024000080240000C02400010024035
:103B6000001C0240AB78000810B50021044604F0A8
:103B70000F0400F089FA0120A04010BD70B5044682
:103B80004B1C0E46218216D0C1F30310FFF77CFFB9
:103B900005463046FFF7E8FF238A074A656103F0D0
:103BA0000F03206052F82330A36105F1100318358C
:103BB0006360A560E56070BDF8780008B0F910009A
:103BC00000F0E6BA10B58369446971B9216893FAC7
:103BD000A3F2B2FA82F20320520000FA02F221EAC2
:103BE000020293FAA3F3226010BD226893FAA3F1B4
:103BF000B1FA81F193FAA3F30320490000FA01F12D
:103C0000B3FA83F322EA01025B00012101FA03F314
:103C10001343236010BD08B5FFF798FD0121002074
:103C200001F0F0F8BDE80840FFF79CBD054B1868AF
:103C300030B901221A60044B044A1A60FFF726BD0E
:103C4000704700BFB81D0020F82B0020000C00407A
:103C500008B5044B1B680BB9FFF7E8FF024B586A25
:103C600008BD00BFB81D0020000C0040044B054AF1
:103C700013605863DA6842F00202DA60704700BFEE
:103C8000000C0040F82B0020034B044A1360DA6854
:103C900022F00202DA607047000C0040F82B00208E
:103CA000034A044B13606FF002021A61704700BFB1
:103CB000F82B0020000C004030B507EE101A284BFE
:103CC00002681A60B5EEC07AF1EE10FA89B00546C6
:103CD00028D4F7EE007AB4EE677AF1EE10FAC8BF96
:103CE000B0EE677AD5ED037AF8EE677A602267EE78
:103CF000877A0192FCEEE77AAA68C5ED047A17EE9E
:103D0000903AB3FBF2F302930023039305930693D7
:103D1000049307932B7D013B032B16D8DFE803F0B8
:103D20001B0517199FED0F7ADCE70424224601A931
:103D30000B4800F079FE10B10B48FEF7FBF96B7DE4
:103D4000074821464BB100F001FF09B030BD0824FF
:103D5000ECE70C24EAE70024E8E700F0D3FEF4E700
:103D6000BC1D002000000000E1780008C368ABB172
:103D700007EE903AD0ED046AB8EE677AF8EE666A1C
:103D8000C6EE877AB7EE007AF4EE477AF1EE10FAD3
:103D9000C8BFF0EE477A17EE900A7047DFED017A60
:103DA000F9E700BF000000002DE9F0474A4C026827
:103DB000226086B000230E4600930546FFF7D6FF2B
:103DC000116A41F211131942074608D1116A40F2F3
:103DD0004443194202BF136823F00103136069468C
:103DE00001A801F0AFFA3D482968002380465FFA38
:103DF00083F9013350F839208A42F8D111B9384893
:103E0000FEF798F908EBC90898F8043053BB01F0A5
:103E100069FA0090049800990123AB60314B30BBE4
:103E2000B1FBF3F3013B636006F1FF3C2D4B62688D
:103E3000B1FBF3FE4FEA41080021B8FBF3F8C4F8E8
:103E40000CC063468A464FF6FE79B3F5803F12D226
:103E5000B2F5803F0FD2BAF1000F00D06260F1B12D
:103E6000E3601CE001F056FA00900598D3E74A00A1
:103E7000B2FBF3F3D6E7AB685B00AB6030BB0EFB85
:103E800003F2BCFBF3F34B4502F1FF3221D8B2F54C
:103E9000803F1ED314486260E360FEF74BF90023B5
:103EA0000D482361A36000F079FD10B10E48FEF7C4
:103EB00041F9EE6039462846FFF7FEFE2268136896
:103EC00043F00103136006B0BDE8F08708FB03F27E
:103ED000D7E701218A46B8E7BC1D002038790008E1
:103EE000CC78000840420F00E178000830B50D465C
:103EF000044689B04C492846FEF7AAF84A49206092
:103F00002846FEF7C1F8C0F30433484A23752368F6
:103F1000C0F34040934260754FF000021AD1009206
:103F2000434A516C41F001015164526C02F00102AC
:103F30000092009A3F4A934229D1002305933C4BBB
:103F40005A6C42F480325A645B6C03F480330593FC
:103F5000059B58E0B3F1804F0BD10192344A116CAC
:103F600041F001011164126C02F001020192019A08
:103F7000E0E731498B421AD102922D4A116C41F08F
:103F800002011164126C02F002020292029A2B4AA0
:103F900093421AD100230693254B5A6C42F4003207
:103FA0005A645B6C03F400330693069B2BE02449B0
:103FB0008B421AD103921E4A116C41F00401116424
:103FC000126C02F004020392039A1E4A93421AD121
:103FD00000230793164B5A6C42F480225A645B6CA0
:103FE00003F480230793079B0DE017498B42A1D16F
:103FF0000F4B04921A6C42F008021A641B6C03F017
:1040000008030493049B08492846FDF7E5FF0023B5
:10401000E36023610123A580A36044F6206120466C
:10402000FFF7C2FE09B030BD587A00080000014019
:1040300000380240004001400004004000440140BC
:104040000008004000480140000C004030B5C36843
:1040500091FAA1F4B4FA84F491FAA1F10325B1FA2A
:1040600081F1640005FA04F4490023EA040302FA2A
:1040700001F11943C16030BD012A02D0022A18BFE4
:104080000022FFF7E3BF00002DE9F0413F4B00F0B5
:104090000F08C0F3031053F828400E4601F007053F
:1040A000FFF7F2FC836894FAA4F1B1FA81F194FA73
:1040B000A4F20327490007FA01F1B2FA82F223EAD7
:1040C00001035200022101FA02F213438D42836080
:1040D00028D0BD4241D0012D3FD00023026894FA80
:1040E000A4F7B7FA87F794FAA4F14FF0030EB1FAE8
:1040F00081F17F000EFA07F7490022EA07028B40A0
:10410000013D1343012D036005D8436832074CBFBE
:104110002343A3434360C6F301122146BDE8F041A7
:10412000FFF7AABFB8F1070FC6F3032717D9426AF2
:10413000230A93FAA3F1B1FA81F193FAA3F34FF0B2
:104140000F0EB3FA83F389000EFA01F19B0022EA05
:10415000010207FA03F3134343622B46BEE7026AE8
:1041600094FAA4F3B3FA83F394FAA4F14FF00F0E88
:10417000B1FA81F19B000EFA03F3890022EA0302EF
:1041800007FA01F313430362E7E700BFF87800087A
:1041900038B500F00F02194BC0F3031053F822405A
:1041A0000D46FFF771FC04FB04F2016802EB4203C9
:1041B0000B40B3FBF2F3013B012B05D8EB1E022BA6
:1041C000436809D823434360032D08D101222146C7
:1041D000BDE83840FFF750BF23EA04034360012DD8
:1041E000F4D0052D01D0022D01D10222EFE72146A6
:1041F0000022BDE83840FFF729BF00BFF87800086B
:104200004309012200F01F0002FA00F02033044AA3
:1042100042F82300BFF34F8FBFF36F8F704700BF8B
:1042200000E100E042681649920110B58B1804685D
:104230008C5082685A60C2689A600269DA6042698A
:104240001A61026A9A610022DA61DA849A84DA8554
:104250009A85B0F91A2001320AD108225A6118460B
:1042600000F0A1FD58B10748BDE81040FDF762BF5E
:10427000B0F9182001320CBF04220C22EEE710BD69
:10428000201E002080790008F7B5194E074656F821
:10429000200000282AD0174CBD0163591A68520625
:1042A0000AD5DB68590607D5134B01211B689847CF
:1042B00063596FF040021A6063591A6892060CD570
:1042C000DB68980609D50C4B56F827001B680021BF
:1042D000984763596FF020021A6063591A681107F2
:1042E00004D55A69D20744BF5B68019303B0F0BD9F
:1042F000FC1D0020201E0020F81D00200020FFF7DC
:10430000C3BF0120FFF7C0BF0520FFF7BDBF0000FE
:10431000F0B50E4685B00446454930461546FDF7D2
:1043200097FE444907462846FDF792FE0146384667
:10433000FDF770FE404B206098421ED003F580636D
:1043400098425ED0A3F5504398422BD13B4B1A6A5A
:1043500042F400321A621A6A22F400321A6200220F
:1043600002921A6C42F400321A641B6C03F400339C
:104370000293029B0123636014E0304B5A6A42F0BF
:1043800010025A625A6A002122F010025A62019108
:104390005A6C42F010025A645B6C616003F01003C7
:1043A0000193019B22493046FDF716FE214928461C
:1043B000FDF712FE721C03D001213046FFF7E8FE24
:1043C0006B1C03D001212846FFF7E2FE4FF4165381
:1043D000A3600023E3602361636123622683658316
:1043E0002046FFF71FFF2268154B9A4207D1154B55
:1043F000154801221A6021464C2202F021FB05B02B
:10440000F0BD0E4B5A6A42F020025A625A6A22F0FC
:1044100020025A62002203925A6C42F020025A642F
:104420005B6C03F020030393039B0523A3E700BF0A
:10443000FC7B0008A87B0008001001400038024007
:10444000004400401C1E0020342C00208160FFF737
:10445000E9BE0000034B19604168034B43F821207B
:10446000704700BFF81D0020FC1D002038B54368D0
:10447000012B0D461AD0052B1BD0EBB91C49252466
:104480001C489B01F2B1C258D368C5B943F0200360
:10449000D360204600F086F96209012304F0070486
:1044A00003FA04F4144B43F8224038BD1349262480
:1044B000E6E713494724E3E700210C46E0E743F031
:1044C0004003E5E7C358DA6835B922F02002DA6024
:1044D000DB681A0606D538BD22F04002DA60DB68D8
:1044E0009B0604D42046BDE83840FFF789BE38BD9E
:1044F000FD420008201E002000E100E00343000808
:10450000094300084368034A9B01D3581868C0F365
:1045100040107047201E0020416810B50446204618
:10452000FFF7F0FF0028FAD08901034B5B58586869
:10453000C0F3080010BD00BF201E00204368034ADE
:104540009B01D3581868C0F3C0107047201E00208C
:1045500038B5446805462846FFF7F0FF0028FAD032
:10456000A401034B1B59C1F30801596038BD00BFBA
:10457000201E002008B500F019F8BDE8084000F042
:1045800001BF7FB50F230193022302934FF48052A2
:104590000023032101A803930492059300F0ECFD8E
:1045A000B0FA80F0400907B05DF804FB174A1849DB
:1045B000936803F00C03042B10B50DD0082B0DD01D
:1045C000144B0B60114B144A9B68C3F30313D25C6A
:1045D0000B68D3400B6010BD104BF2E75468506875
:1045E00052686302C2F3881200F03F004CBF0B4BCD
:1045F000084BB3FBF0F35343044A5268C2F3014241
:1046000001325200B3FBF2F3DBE700BF0038024097
:10461000BC0100200024F400507C000800127A0045
:1046200000B58FB01B4B002100911A6C42F08052F4
:104630001A641B6C184A03F080530093009B01918D
:10464000136823F4404343F400431360136803F4F6
:1046500040430193019B01230293B0B903930223CA
:1046600008934FF48003099304230A930C930823BF
:10467000C0220DEB03000B920D9300F0D3FB30B979
:10468000FFF77FFF0FB05DF804FB0523E6E700208E
:10469000F8E700BF003802400070004010B58EB04F
:1046A00000241A4B00941A6C42F080521A641B6C5E
:1046B000174A03F080530093009B0194136823F47E
:1046C000404343F4004313601368039403F44043EE
:1046D0000193019B09940323029301230593102363
:1046E00006930223C022089308230B920DEB0300CC
:1046F00004220A930C920D9300F094FB18B9FFF773
:1047000040FF0EB010BD2046FBE700BF003802405E
:104710000070004008B50120FFF782FF30B9FFF7B5
:104720007FFF18B9FFF7BAFF00B9FEE708BD000028
:10473000174AD2F8883010B543F47003154CC2F80C
:1047400088302368002143F001032360A1602368BF
:1047500023F0847323F4803323600F4B636023685A
:1047600023F4802323604FF00063E16093600B4BE0
:104770000B4A1A6000F006FEFFF7CCFF236A43F0F5
:1047800008032362236A23F00803236210BD00BFDD
:1047900000ED00E00038024010300024BC01002091
:1047A0000024F40030B50C4CA268A468B4F1006F8A
:1047B00013460CD1131F094C094A53F8045F42F801
:1047C000045FA242F9D1044A4FF0005393601030C5
:1047D00043F8201030BD00BF00ED00E09401002040
:1047E000FCFFFF1F036A23F001030362036A70B535
:1047F000446882690D6822F073022A438D6823F0B1
:1048000002032B430A4DA8420BD1CD688E6923F0D9
:1048100008032B434D6924F44074354323F004030B
:104820002C43446082614A684263036270BD00BFEA
:1048300000000140036A23F480730362036A70B5C9
:104840004468C2690D6822F073022A438D6823F41C
:10485000007343EA05230B4DA8420DD1CD688E6944
:1048600023F4006343EA05234D6924F4405435439F
:1048700023F4806344EA05144460C2614A68C26359
:10488000036270BD00000140036A23F48053036299
:10489000036A30B54468C2690D6822F4E64242EA10
:1048A00005228D6823F4005343EA0533064DA842E0
:1048B00002BF4D6924F4804444EA85144460C26117
:1048C0004A680264036230BD0000014070477047CF
:1048D000224A036890420ED0B0F1804F0BD0A2F56F
:1048E0007C42904207D002F58062904203D002F5EC
:1048F0008062904219D14A6823F070031343174A2B
:10490000904204D1CA6823F44073134318E0B0F115
:10491000804FF7D0124A9042F4D002F58062904264
:10492000F0D002F580629042ECD00E4A9042E9D07D
:1049300002F580629042E5D002F580629042E1D0BB
:1049400003608B68C3620B688362044B984204BFA8
:104950000B69036301234361704700BF00000140FE
:10496000000400400040014010B50446A0B190F89A
:10497000393003F0FF021BB980F83820FFF7A6FF9B
:10498000022384F839302068211DFFF7A1FF01239D
:1049900084F83930002010BD012010BD10B5044648
:1049A000A0B190F8393003F0FF021BB980F838202D
:1049B000FFF78DFF022384F839302068211DFFF7AF
:1049C00087FF012384F83930002010BD012010BD7D
:1049D000036A23F010030362036A70B544688269B6
:1049E0000D6822F4E64242EA05228D6823F0200396
:1049F00043EA05130B4DA8420DD1CD688E6923F013
:104A0000800343EA05134D6924F44064354323F0E1
:104A1000400344EA8504446082614A688263036219
:104A200070BD00BF0000014038B590F83830012B50
:104A300004464FF0020025D0012384F8383084F872
:104A400039000C2A18D8DFE802F0071717171E17CD
:104A500017172F17171740002068FFF7C3FE2368AA
:104A600009699A6942F008029A619A6922F004027F
:104A70009A619A690A439A610123002084F83930C7
:104A800084F8380038BD2068FFF7A2FF2368096961
:104A90009A6942F400629A619A6922F480629A618A
:104AA0009A6942EA0122E6E72068FFF7C3FE23681D
:104AB0000969DA6942F00802DA61DA6922F004026F
:104AC000DA61DA690A43DA61D6E72068FFF7DCFECB
:104AD00023680969DA6942F40062DA61DA6922F46A
:104AE0008062DA61DA6942EA0122ECE7036A10B512
:104AF00001248C4023EA04030362036A8A401A43B8
:104B0000026210BD10B5044601220068FFF7EEFFF7
:104B10002368064A934202BF5A6C42F400425A6428
:104B20001A6842F001021A60002010BD0000014026
:104B3000FFF7E8BF036A10B504248C4023EA04039E
:104B40000362036A8A401A43026210BD10B504462C
:104B500004220068FFF7EEFF23685A6C42F400421B
:104B60005A641A6842F001021A60002010BD000069
:104B70002DE9F0470668C2683369C16923F44053E0
:104B800013433361044683680069F2680343606934
:104B900022F41642034322F00C020B431343F3604A
:104BA0007369A26923F440731343B1F5004F736135
:104BB0007A4B7CD19E4203D003F580639E4244D160
:104BC00000F0A8FB192505FB00F360684FF06409AD
:104BD0004000B3FBF0F3B3FBF9F34FEA031800F026
:104BE00099FB636868435B00B0FBF3F700F092FB4E
:104BF000636868435B00B0FBF3F3B3FBF9F309FBB5
:104C00001373DB003233B3FBF9F35B0003F4F87783
:104C100000F080FB626868435200B0FBF2FA00F0DB
:104C200079FB636868435B00B0FBF3F3B3FBF9F314
:104C300009FB13A3DB003233B3FBF9F303F00703E3
:104C400043443B44B360BDE8F08700F04BFB1925BB
:104C500005FB00F360684FF064094000B3FBF0F31C
:104C6000B3FBF9F34FEA031800F03CFB63686843B9
:104C70005B00B0FBF3F700F035FB636868435B0053
:104C8000B0FBF3F3B3FBF9F309FB1373DB0032332F
:104C9000B3FBF9F35B0003F4F87700F023FB6268E1
:104CA00068435200B0FBF2FA00F01CFBB9E79E42E9
:104CB00002D03B4B9E4240D100F02CFB6768192587
:104CC0004FF0640905FB00F3BF00B3FBF7F3B3FB40
:104CD000F9F31F0100F01EFB636868439B00B0FB03
:104CE000F3F800F017FB636868439B00B0FBF3F335
:104CF000B3FBF9F309FB13831B013233B3FBF9F365
:104D000003F0F00800F006FB626868439200B0FB15
:104D1000F2FA00F0FFFA636868439B00B0FBF3F31C
:104D2000B3FBF9F309FB13A31B013233B3FBF9F314
:104D300003F00F0343EA080383E700F0D3FA676840
:104D400019254FF0640905FB00F3BF00B3FBF7F32F
:104D5000B3FBF9F31F0100F0C5FA636868439B00D9
:104D6000B0FBF3F800F0BEFA636868439B00B0FB49
:104D7000F3F3B3FBF9F309FB13831B013233B3FBEA
:104D8000F9F303F0F00800F0ADFA626868439200AE
:104D9000B0FBF2FA00F0A6FABDE700BF0010014038
:104DA00000140140704710B5044640B390F8393004
:104DB00003F0FF021BB980F83820FFF7F3FF2268E9
:104DC000242384F83930D36823F40053D360204679
:104DD000FFF7CEFE23681A6922F490421A615A69DD
:104DE00022F02A025A61DA6842F40052DA600020A6
:104DF0002023E06384F8393084F83A3010BD012074
:104E000010BD0000064A1369012923F00403136151
:104E100001D130BF704740BF20BF20BF704700BFE7
:104E200000ED00E00368F7B5DD07044638D42368D9
:104E3000980771D423681E0700F1BD8023685D07C1
:104E400028D500230193A84BA84D1A6C42F080523C
:104E50001A641B6C03F080530193019B2B6843F48D
:104E600080732B6000F0AEFA06462B68DA0540F13D
:104E7000C4809F4B227A1A70A368002B00F0CB806D
:104E800000F0A0FA984D064641F288372B6F9B0739
:104E900040F1BA80A269002A40F0CD80002015E0E0
:104EA000914B9A6802F00C02042A07D09A6802F02B
:104EB0000C02082A0CD15B68590209D58A4B1B6881
:104EC0009A03B4D56368002BB1D1012003B0F0BDC3
:104ED000884B22791A7063687BB100F073FA824DB7
:104EE000064641F288372B689B03A0D400F06AFA8B
:104EF000801BB842F7D90320E8E700F063FA7A4D47
:104F0000064641F288372B68980390D500F05AFA8C
:104F1000801BB842F7D9EEE7734B9A6812F00C0F7A
:104F200007D09A6802F00C02082A16D15B68590271
:104F300013D46D4B1A68920702D5E268012AC4D1D6
:104F40001868F82292FAA2F2B2FA82F122698A4033
:104F500020F0F8010A431A606CE7E268664BDAB1A8
:104F600001221A6000F02EFA5F4D06462B689B075F
:104F70000CD52968F82393FAA3F3B3FA83F22369D3
:104F8000934021F0F80213432B6053E700F01AFA24
:104F9000801B0228EAD9AEE71A6000F013FA524DDE
:104FA00006462B689F077FF545AF00F00BFA801B84
:104FB0000228F6D99FE76269504B7AB101221A6044
:104FC00000F000FA484D06466B6F98073FF536AF84
:104FD00000F0F8F9801B0228F6D98CE71A6000F07F
:104FE000F1F9414D06466B6F99077FF527AF00F049
:104FF000E9F9801B0228F6D97DE700F0E3F9801B70
:1050000002287FF632AF76E700F0DCF9801BB84269
:105010007FF63CAF6FE700F0D5F9334D064641F21D
:1050200088372B6F98077FF535AF00F0CBF9801BE1
:10503000B842F6D95FE72C4DAB6803F00C03082BA0
:105040003FF443AF2E4E0023022A33603ED100F0DE
:10505000B9F907462B68990132D447F6C07797FA19
:10506000A7F74FF44032B7FA87F792FAA2F24FF05F
:105070007061B2FA82F091FAA1F1226AE3691343F6
:10508000626A02FA07F7A26A5208013A82403B4379
:105090001343E26A144CB1FA81F102FA01F10B43B5
:1050A0006B600123336000F08DF9054623689A0197
:1050B0003FF5F4AE00F086F9401B0228F6D91AE756
:1050C00000F080F9C01B0228C4D914E700F07AF977
:1050D00004462B689B017FF5E1AE00F073F9001BDD
:1050E0000228F6D907E700BF0038024000700040F0
:1050F000703802400238024000004742800E4742AA
:1051000060004742194A936803F00C03042B10B562
:1051100003D0082B03D0164810BD164810BD5168A7
:10512000536801F03F0113F4800F47F6C0745368D1
:1051300094FAA4F0B0FA80F003EA040323FA00F32F
:1051400014BF0C480A48B0FBF1F05843074B4FF42A
:1051500040325B6892FAA2F2B2FA82F203F4403370
:10516000D34001335B00B0FBF3F010BD00380240C8
:105170000024F40000127A00564B1A6802F00F0265
:105180008A422DE9F04105460E4630D32A6894073D
:1051900037D4D0073DD44F4B1A6802F00F02964225
:1051A000C0F088802A68510700F18C80130707D56A
:1051B000494A2969936823F4604343EAC103936031
:1051C000FFF7A0FF444BF0229B6892FAA2F2B2FADA
:1051D00082F203F0F003D340404AD35CD840404B06
:1051E00018600F20FEF752FA0020BDE8F081CAB225
:1051F0001A701B6803F00F039942C7D00120BDE865
:10520000F0813549A8688B6823F0F00303438B6075
:10521000BFE76A68304B012A1ED11B6813F4003FB8
:10522000ECD02D4CA36823F003031343A36000F0DC
:10523000C9F86B68012B074641F2883816D1A3687C
:1052400003F00C03042BA6D000F0BCF8C01B4045B3
:10525000F5D90320BDE8F081911E01291B6802D811
:1052600013F0007FDCE713F0020FD9E7022B0AD11D
:10527000A36803F00C03082B8DD000F0A3F8C01B2B
:105280004045F5D9E5E7032B0FD1A36803F00C03E4
:105290000C2B80D000F096F8C01B4045F5D9D8E71C
:1052A00000F090F8C01B4045D3D8A36813F00C0F52
:1052B000F6D170E7F2B21A701B6803F00F039E423A
:1052C0009CD16FE70449E8688B6823F4E0530343FB
:1052D0008B606BE7003C024000380240607C0008B5
:1052E000BC010020084B4FF4E0529B6892FAA2F2F6
:1052F000B2FA82F203F4E053D340044AD35C044A86
:105300001068D840704700BF00380240607C000839
:10531000BC010020084B4FF460429B6892FAA2F255
:10532000B2FA82F203F46043D340044AD35C044AE5
:105330001068D840704700BF00380240607C000809
:10534000BC0100200F2303600B4B9A6802F003029C
:1053500042609A6802F0F00282609A6802F4E052B9
:10536000C2609B68DB0803F4E0530361034B1B68D6
:1053700003F00F030B60704700380240003C02400E
:105380007047000008B50A4B1A6842F400721A60B0
:105390001A6842F480621A601A6842F480721A60D5
:1053A0000F20FEF773F9FFF7EBFF002008BD00BFE9
:1053B000003C0240024A136801331360704700BF8B
:1053C000802C0020014B1868704700BF802C002003
:1053D0004369416810B50446194400F073FA636AE2
:1053E00004F118001B68BDE81040184738B50446A2
:1053F0000D46FCF775FE204600F06AFA65612069EB
:10540000FCF7E7FD2918204600F05CFABDE83840BB
:10541000FCF77CBE7FB5064606F11804FCF760FE7B
:105420006D46304600F054FA0023AC4203930BD093
:105430002046FBF76DF83CB1039B1BB15B686946E6
:1054400020469847039B73622846FBF761F8FCF7F8
:105450005DFE04B070BD10B50446FCF741FE236844
:105460002BB9E068FCF7B5FD012360602360BDE85F
:105470001040FCF74BBE38B50546FCF731FE2C68F2
:1054800024B1E868FCF7A5FD6C68041BFCF73EFE40
:10549000204638BD38B50546FCF722FE2846AC68E4
:1054A000FFF7E9FF0444FCF731FE204638BD08B59C
:1054B000FFF7F0FF4FF47A7390FBF3F008BD10B5DF
:1054C0000446FCF70DFEE068FCF783FD00236060F6
:1054D000A360BDE81040FCF719BE002310B50360BF
:1054E000436083600446FCF7FDFCE0602046FFF764
:1054F000E6FF204610BD704710B5044600F02CF9B9
:10550000014B2360204610BD8C7C000810B5034B76
:1055100003600446FCF728FB204610BD8C7C000885
:1055200010B50446FFF7F2FF204600F05FFB20466F
:1055300010BD704783681A6843681A4214BF01207F
:105540000020704710B5084B044640F8203BFEF79A
:1055500071FA04F14000FAF7DBFF04F13000FAF7CA
:10556000D7FF204610BD00BFA47C000810B504463C
:10557000FFF7E8FF204600F039FB204610BD8842C7
:1055800038B504460D460AD0FAF7C2FF3CB1EB68C5
:105590001BB15B68294620469847EB68E3602046CC
:1055A00038BD00002DE9F04305461F4B45F8043B8C
:1055B000044685B00E4604F120071C22002128462F
:1055C00001F063FA10220021384601F05EFA002350
:1055D000E363E3646946DFF85890DFF85880CDF85C
:1055E000009004F13000CDF80C80FFF7C8FF68464A
:1055F000FAF78EFF694604F14000CDF80090CDF82F
:105600000C80FFF7BCFF6846FAF782FF2346074A83
:1056100031463846FEF75AF928463146FCF74BFC2E
:10562000204605B0BDE8F083A47C0008D7560008EA
:1056300033550008D07400087FB50E460446FCF7C9
:105640004FFDF56804F1300020345DB13146FFF7BD
:1056500096FF012201212046FEF7DCF8FCF756FDFB
:1056600004B070BD054B00936946054B0393FFF7EB
:1056700086FF6846FAF74CFF2A46EBE733550008E9
:10568000D07400087FB50E460446FCF729FDF56886
:1056900004F1400020345DB13146FFF770FF012274
:1056A00002212046FEF7B6F8FCF730FD04B070BDCD
:1056B000054B00936946054B0393FFF760FF68466F
:1056C000FAF726FF2A46EBE733550008D0740008A6
:1056D000C3681B681847012908B502D0022904D005
:1056E00008BD3030FFF7F4FF08BD4030FAE77047DF
:1056F0007047704700EB011202F19800D2F8A43015
:105700001B68184710B480B1146853680CB9DA07E5
:105710000BD513F0010F4FEA63031CBFC258145995
:10572000184423465DF8044B18475DF8044B704756
:1057300070B50546044655F84C3B0E461B68984725
:1057400028463146FEF782FE2368C4F8B86020463A
:105750005B68BDE8704018472DE9F04387B000252D
:105760009146009502460195044688461F469DE8ED
:105770000300274B42F8083B264B82E803002361D5
:1057800048F207036361244BE561A461226263620E
:10579000BFF36F8FBFF34F8F04F14C064C2265634C
:1057A000656484F8485084F84950304601F06DF93A
:1057B00002A9C4F8A450C4F8B450C4F8B870174D86
:1057C000174F029704F198000595FFF7D8FE02A83D
:1057D000FAF79EFE02A904F1A80002970595FFF7CB
:1057E000CEFE02A8FAF794FE4A4641463046FEF73E
:1057F0008FFDD4F8B8103046FEF728FE304622461A
:105800000849FEF727FE204607B0BDE8F08300BF39
:10581000B47C000801A090E805570008D074000887
:10582000EF560008F55600082DE9FF410546884669
:1058300055F84C3B1B68044616469847FCF750FC4D
:10584000D8F80C70300197B1983041462044FFF7EA
:1058500096FE012231462846FEF708FEFCF756FC6C
:10586000236820465B68984704B0BDE8F081074B89
:1058700000939830064B039369462044FFF77FFE60
:105880006846FAF745FE3A46E4E700BFEF560008DF
:10589000D074000803689B6818470000074B10B5D8
:1058A0000360002343608360C3600446FCF71AFB77
:1058B00003492061FCF720FB204610BDCC7C00088A
:1058C0009558000803460A46011D0069FCF740BBD5
:1058D000011D0069FCF75DBB10B5034B0360044676
:1058E000FFF7F6FF204610BDCC7C000838B5044613
:1058F00048B15830A04206D0A0F12C051438FCF76E
:105900002AF92846F6E7204638BD000070B50E4C4F
:105910002046002528263246294640F8045B01F03F
:10592000B4F83246294604F13000E56201F0ADF8E2
:10593000A5652046E565054A84F860500449BDE840
:10594000704000F035B900BF2020002098010020F1
:10595000ED58000801F0F0B801F04CB901F09EB824
:1059600070B50546FEF774F94FF47A7495FBF4F4BC
:10597000002C064602DDFCF7ADFB28B9FEF768F9FE
:10598000801BA842FAD370BD204600F039F9F5E734
:1059900007EE100ADFED047A67EE277AFDEEE77A6C
:1059A00017EE900AFFF7DCBF002474494FF47A73B6
:1059B0005843FFF7D5BF000008B5084B1B685BB91B
:1059C000022107480322FEF7A3FC4FF416510448B6
:1059D000BDE80840FEF73ABD08BD00BF1C1E002010
:1059E000342C0020022810B5044601DC002010BD34
:1059F00000F00AFE09230360033C094B53F824001E
:105A0000002243F8242040B103681B699847041E14
:105A1000ECDA00F0F9FD644204604FF0FF3010BD95
:105A200084200020F8B505460E46144600F0ECFD33
:105A30000923022D03600FDC124B1B680BB9FFF723
:105A4000BBFF35463719104EBD4215D015F8011B66
:105A50003046FEF77DFDF7E7033D0C4B53F825007C
:105A600060B103682246DB6831469847041E03DABA
:105A700000F0CAFD634203602046F8BD4FF0FF34DA
:105A8000FAE700BF1C1E0020342C002084200020D8
:105A900070B504460D46164600F0B6FD0923022CEB
:105AA00003600BDC0F4B1B680BB9FFF785FF0E483B
:105AB000FEF732FD01242870204670BD033C0B4BDD
:105AC00053F8240058B1036832469B68294698472A
:105AD000041EF1DA00F098FD63420360ECE74FF03A
