:020000040800F2
:1000000000000220055C0008395C0008395C00082B
:10001000395C0008395C0008395C00080000000009
:10002000000000000000000000000000C95A0008A5
:10003000395C0008000000006F5B0008CF5B00081F
:10004000395C0008395C0008395C0008395C00083C
:10005000395C0008395C0008395C0008395C00082C
:10006000395C0008395C0008395C0008395C00081C
:10007000395C0008395C0008395C0008395C00080C
:10008000395C0008395C0008395C00080000000099
:10009000000000000000000000000000395C0008C3
:1000A000395C0008395C0008395C0008395C0008DC
:1000B000395C0008395C0008395C0008395C0008CC
:1000C000395C0008395C0008395C0008395C0008BC
:1000D000395C0008395C0008395C00080000000049
:1000E000395C0008395C0008395C00080000000039
:1000F000000000000000000000000000395C000863
:1001000000000000395C0008395C0008395C000818
:1001100000000000000000000000000000000000DF
:10012000395C0008395C0008395C0008395C00085B
:10013000395C000800000000000000000000000022
:10014000000000000000000000000000395C000812
:10015000395C0008395C0008395C0008395C00082B
:10016000395C0008395C0008000000000000000055
:10017000000000000000000000000000000000007F
:1001800000000000395C00080000000000000000D2
:10019000395C0008395C000810B5054C237833B988
:1001A000044B13B10448AFF300800123237010BD4A
:1001B000900400200000000080B902080C4B43B1FD
:1001C0000C480D4910B5AFF300800C48036823B903
:1001D00010BD0A48036833B97047094B002BF7D0AC
:1001E000BDE810401847064B002BF5D0184700BF5C
:1001F0000000000080B90208940400208C04002054
:100200000000000043680B7043681B0A4B70C388F2
:100210008B70C379CB7083680B7183681B0A4B7139
:1002200043898B71C37ACB71082070470B78436088
:100230004A7843EA022343608A7843EA02434360F0
:10024000CA7843EA026343600B7983604A7943EAE0
:10025000022383608A7943EA02438360CA7943EACE
:10026000026383600820704700487047DA7602080E
:1002700000487047B9760208004870474B7602087C
:10028000004870472A76020800487047177602082F
:1002900000487047F6750208004870476476020807
:1002A00000487047D575020800207047002070474D
:1002B000004870470977020800487047E87602084E
:1002C00043680B701A0A4A701A0C1B0E8A70CB70A6
:1002D000042070470B684360042070470048704753
:1002E0003977020800487047187702088268C368A7
:1002F0000A7010B5140A4C70140C120ECA701A0A47
:100300000B714A711A0C1B0E8C708A71CB710269C9
:1003100043690A72140A4C72140C120ECA721A0A39
:100320000B734A731A0C1B0E8C728A73CB7382691F
:10033000C3690A74100A4874100C120ECA741A0A9F
:100340000B754A751A0C1B0E88748A75CB751820AC
:1003500010BD0A684B68C0E902238A68CB68C0E90F
:1003600004230A694B69C0E906231820704700007E
:1003700000487047BF750208004870479E75020824
:100380000368184708B10B6803607047704770B581
:10039000054600F110042046FFF7DBFF2B6B2046DB
:1003A000BDE870401847406B704700000048704738
:1003B000BF750208004870479E75020870B5054673
:1003C00000F10C042046FFF785FF6B692046BDE86D
:1003D00070401847806970470048704739770208B5
:1003E000004870471877020803690C3018474069C5
:1003F00070470000004870470977020800487047BE
:10040000E876020890F8E80570470000014800F01F
:1004100068BF00BFAC040020024B4168024819606D
:1004200000F064BF0C0D0020AC04002073B504463E
:10043000D0E902011FF040F80D4B05461860D4E9E1
:1004400004011FF039F80B4B06461860D4E9060189
:100450001FF032F8084A1060084A126800920346FA
:1004600032462946064800F0A2FE02B070BD00BF29
:10047000A00100209C010020E0050020A401002034
:10048000800C0020104B70B51868104C104D1EF0F9
:10049000DDFCC4E90201284601F01CF81EF0C4FC92
:1004A000C4E90401284601F019F81EF0CFFC094BFD
:1004B000C4E90601D86899680268156822462B4687
:1004C000BDE87040184700BF0C0D0020000600205A
:1004D0001405002020060020074A084853681968C0
:1004E000136819420CBF9268D268054918BF1B04F3
:1004F000136001F0FEB800BFE4050020C404002032
:100500009A99193FC36810B504460BB19B68984788
:10051000204610BD38B50546064B45F8183B044645
:1005200004F036FE2846FFF7EDFF204605F0A4F85C
:10053000204638BDF87C020810B50446FFF7EAFFF4
:10054000204605F087FA204610BD38B5CB68044632
:100550000D460BB15B689847EB68E360204638BDF9
:100560000138002321FA03F20833202B00F8012F71
:10057000F8D1704743682DE9F0410B7043681B0ABE
:100580004B70C3888B70C379CB700D460A1D04462F
:10059000002160688142A2EB050302F104020FD240
:1005A000E36853F8213002F8043C180A02F8030CFF
:1005B000180C1B0E02F8020C02F8013C0131E8E7AE
:1005C0002269EA542169EA18090A5170618A917016
:1005D000E17CD17004332B44002122699142A3EBCA
:1005E000050603F104030FD2A26952F8212003F893
:1005F000042C100A03F8030C100C120E03F8020C62
:1006000003F8012C0131E8E7E369AB55E269AB1966
:10061000120A5A70E28B9A70E27FDA700436002771
:10062000E3699F4214D2636A53F8270021F072FAFB
:1006300080460146A819FFF793FF636A043653F812
:100640002710A81942461FF0EAFE46440137E7E7A3
:100650003046BDE8F081F8B50E46037906F8013B57
:10066000054680680F4621F055FA0446014630469B
:10067000FFF776FF2246A968781D1FF0D0FE601DA7
:10068000F8BD83882DE9F0410B7083881B0A4B70FD
:10069000054680680C4621F03DFA07460146A01C3D
:1006A000FFF75EFF3A46A968A01D1FF0B8FEE86894
:1006B00021F030FA07F10608064601460A3704EB36
:1006C0000800FFF74DFF3246E968E0191FF0A7FE6A
:1006D000286921F01FFA3E4401460746A019043656
:1006E000FFF73EFF3A46A01929693E441FF097FEE6
:1006F0006B69A35534441A0A62701A0C1B0EA2705F
:10070000E370301DBDE8F08110B5002303600139AE
:1007100011F8012F02FA03F4026808332243202B58
:100720000260F5D110BD37B50C4611F8013B0371DD
:10073000054601A8FFF7E8FF019B621D581D111B2C
:10074000884204D912F8011B02F8021CF7E723447F
:10075000002204341A71AC6003B030BDF0B50B78E0
:1007600083804A7885B043EA022383800C4606469C
:10077000023101A8FFF7C8FF019FA31DBD1D1A1B71
:10078000954204D913F8012B03F8022CF7E7E3197B
:1007900000225A71631DB360611902A8FFF7B4FF0C
:1007A0002B1D029D07F10A021D442244111B8D429C
:1007B00004D912F8011B02F8021CF7E76119013B8A
:1007C0002344002201F8012C03A8F360FFF79CFFEB
:1007D00003980435284463191A1B904204D913F86E
:1007E000012B03F8022CF7E72218013D00232544D2
:1007F00002F8013C356193785178D2781B0443EAC2
:100800000123215C0B4343EA02630430736105B0AA
:10081000F0BD2DE9F34143680D689D4204460E4644
:1008200004D9A900C06820F035FAE0606560321D87
:10083000002160688142A2EB060302F1040213D298
:1008400012F8023C12F8030C1B0443EA002312F8CE
:10085000040C034312F8010C43EA0063E068A36050
:1008600040F821300131E4E7F218F15C95785078D6
:10087000D2782D0445EA00250D431F1D236945EA62
:1008800002659D4204D9A900A06920F003FAA06185
:100890002561F319002122699142A3EB060503F1BA
:1008A000040313D213F8022C13F8030C120442EAC7
:1008B000002213F8040C024313F8010C42EA006210
:1008C000A069626140F821200131E4E77319725D8B
:1008D0009F785978DB783F0447EA0127174347EAB6
:1008E0000367E3699F4205F1040504D9B900606A12
:1008F00020F0D0F96062E7610027B846E3699F42C3
:100900001AD2711901A8FFF7FFFE2B1D019DF218E5
:100910001D44911BA94204D212F8011B02F8021CCB
:10092000F7E77219013B02F8018C626A33442362D3
:1009300042F827300137E1E7284602B0BDE8F081F0
:1009400010B500F5AE62002352F8044B3CB903F534
:10095000AE72643340F822104B60012010BD0133A9
:10096000192BF1D1002010BD114A08B5002352F80F
:10097000041FC9B90F49104A01EB83007D33C0F849
:100980000C259360D1600D490A48FFF7D9FF0C4947
:100990000848FFF7D5FF0B490648FFF7D1FF0A4982
:1009A0000448FFF7CDFF08BD0133192BDFD1EAE77B
:1009B000640B00205C06002020060020100D0020A3
:1009C000F00C0020A00C0020D80C002030B585B021
:1009D0000446094B019300230293039354F8EC3B24
:1009E00001AA1B680A2105469847204604F02EFC00
:1009F000C5F8FC0005B030BD607402082DE9F04177
:100A000086B02B4B009300222A4BADF804200546FC
:100A1000029303930493059200F20C5400F5AE6622
:100A20004FF400772368BBB158689A68ADF804208A
:100A30001A68036802929B68984723680390586875
:100A40000368DB68984721682B68049005971B684A
:100A500009696A46284698470434B442E2D105F24F
:100A6000D4564FF400772068C8B14368ADF804301D
:100A70008368029303689B68984703902068036823
:100A8000DB6898472B6804902068D3F800800368DF
:100A900005975B6898476A4601462846C047043474
:100AA000A642E0D1012385F8E83506B0BDE8F08123
:100AB00078740208DC770208F0B585B000F1EC0527
:100AC0001F4B0193044600232846029303930E46CE
:100AD00004F0BCFBD4F8FC203146871A01A8FFF7CC
:100AE000A5FB029B4FF47A76B7FBF6F21344029310
:100AF00006FB1272039B134F284607FB0232039238
:100B000004F0A4FB029AB0FBF6F3013AD21A03995F
:100B1000C4F800210C4A06FB13030A4407FB132305
:100B2000C4F8043104F5827104F5807000F050FEC1
:100B3000284604F08BFBC4F8F00505B0F0BD00BFFB
:100B40006074020840420F0000CA9A3B2DE9F74F3B
:100B5000DFF8A092DFF8A0A2814C824E824F834D35
:100B6000DFF898B2484604F087FB814B814A1B6846
:100B700000938149814B12681B680968504600F058
:100B80000FFB4FF0010810238DE8080108226423B1
:100B90001A21204600F024FD32467949204604F00F
:100BA00001FF142315221321384600F07DFD4B462A
:100BB000CDF800A022463946724CDFF84492284610
:100BC00000F086FB32467049284604F0EBFE2046D2
:100BD000002504F033FD6D4B2360656220466C4CAC
:100BE0006C49324604F0DEFE20466B4B40F8043B75
:100BF00004230322022104F1EC07009301954FF432
:100C0000807300F0D3FE384604F036FB4FF46143A6
:100C1000C4F8E83038464FF4007704F0DAFA3A4680
:100C2000294604F58670C4F8FC50C4F80051C4F895
:100C30000451C4F808511FF017FC3A4629466427AE
:100C400004F543701FF010FC3A46294604F20C509C
:100C50001FF00AFC3A46294604F5AE601FF004FC7A
:100C60004E4BC4F8FC3504F5C2634FF0000AC3F8DC
:100C700000A0C4F8D455C4F8D855C4F8DC55C4F85D
:100C8000E055C4F8E45584F8E855C4F8EC55C4F8C8
:100C9000F055C4F8F45584F8F855C4F80056C4F873
:100CA0000456C4F80856C4F80C56C4F81456C4F8D0
:100CB0001856C4F81C56C4F8205632463849204607
:100CC000384C04F06FFE002600271C2229465846A7
:100CD000C4F80090C4E90267C4E90467C4E9066780
:100CE0001FF0C2FB5846052100F0A8FF2E4B2F48ED
:100CF00018612F492F4A30481960DA609860C3F8AC
:100D000014802E4BDA602E4A1A612E4A19609A60BE
:100D1000C3F814802C4B2D4A1A602D4ADA602D4AF4
:100D20005A612D4AC3F810A09A60C3F818802B4B63
:100D30002B4A1A602B4A1A632B4AC3F810909A6008
:100D4000C3E90667C3E90867C3E90A67C3F83480E3
:100D5000264A274B83E814001D6103B0BDE8F08FDD
:100D60001405002098010020C4040020AC040020D9
:100D7000A40100209C010020A0010020E00500202B
:100D80008D11000834060020F9130008F87C0208D1
:100D90005C0600201505000808750208A874020802
:100DA0007511000800060020100D00200D04000839
:100DB0001C750208C074020868750208D80C00206F
:100DC000D904000873750208F00C0020347502087D
:100DD000D8740208190400087D750208A00C0020D0
:100DE0004C7502082D0400088775020893750208E7
:100DF00020060020280D0020800C0020E4050020A3
:100E0000F07402082DE9F74F00F1EC09044648465A
:100E100004F01CFAD4F8F03542F6F822C31A9342D3
:100E200084BF002384F8E835D4F8D435054633B1BF
:100E3000D4F8F43583423CBF0023C4F8D4350027EE
:100E4000BA4604F1040B3E4604F58678D4F808311E
:100E5000E3B9584600F0CAFC18BB94F8E8355BB11A
:100E6000D4F8EC3540F6C412EB1A934204D920466C
:100E7000FFF7ACFDC4F8EC55002F40F0D780BAF175
:100E8000000F14BF6FF002000020A7E0484604F0F6
:100E9000DDF9D4F80831401B9842DAD96FF001002F
:100EA0009CE0584600F0ACFC0028D6DBD4F8E435D2
:100EB000D4F8D4250344072AC4F8E43510D1D4F873
:100EC000E0355A1C2344C4F8E02583F80C01D4F81B
:100ED000D835013BC4F8D835002BB7D108231CE026
:100EE000B2B9FF2807D10123C4F8D43505F11403A2
:100EF000C4F8F435AAE74846019204F0A7F941F294
:100F00008833401B9842019AA0D984F8E825C5E7A8
:100F1000012A0FD1FE2803D10223C4F8D43595E766
:100F200094F8E835C4F8D465002B8FD12046FFF73C
:100F30004DFD8BE7022A09D1C4F8D805C4F8E06555
:100F40000323C4F8D435C4F8E4057FE7032A07D1A6
:100F5000D4F8D83503EB0020C4F8D8050423DCE727
:100F6000042A0BD15A42D2B2DBB258BF5342FF2BF4
:100F700001D10523D1E7C4F8D46567E7052A03D179
:100F8000C4F8DC050623DCE7062A0BD1D4F8DC35EF
:100F900003EB00200723C4F8D435C4F8DC05D4F8EB
:100FA000D83599E7082A7FF451AF5A42D2B2DBB262
:100FB00058BF5342FF2BC4F8D4657FF447AFD4F831
:100FC000DC3573B92046FFF701FD2046FFF716FD1B
:100FD000C4F8EC55C4F8F0554FF0FF3003B0BDE84D
:100FE000F08F0A2B05D141462046FFF765FD01270A
:100FF0002CE7062B08D1414604F2FC50FFF709FC10
:10100000012384F8F83521E70B2B04D184F8E86537
:101010004FF0010A1AE7F83354F8230000283FF490
:1010200015AF036841461B6898470FE76FF0030050
:10103000D4E7000000B5194C89B0D4F8E810201DA1
:1010400004F046FA0023C4F8D435C4F8D835C4F8FF
:10105000E035C4F8DC35FFF787FC114B0093694697
:10106000104B039304A8FFF770FA0F48FFF74AFAF2
:1010700004A90D48FFF769FA0C490D4804F074F80B
:1010800004A8FFF73FFA6846FFF73CFA2046FFF74F
:10109000B9FE012004F04EFBF8E700BF5C0600201B
:1010A000850400085C7502084C060020A08601003B
:1010B00034060020F0B5632985B004460E4603DDF2
:1010C00090F8E855002D4DD0136804F213311B68D9
:1010D00010469847FF2384F80C33FE23C0F3072201
:1010E00084F80D33C3B284F80E331344DB4384F821
:1010F000116346F3072684F80F2384F8103384F82D
:10110000126304F2113105220023861DB24204DC71
:1011100011F8015B01322B44F8E700F10805204487
:10112000DB43B5F5007F80F813330CDC04F543771F
:101130003E460434F31B9D4214DD16F8011B204685
:1011400000F0A4FCF6E7094B019303238DF8083067
:10115000074B0393236801AA1B6807212046984781
:101160004FF0FF35284605B0F0BD00BF907402086F
:101170008076020810B5044B044640F8043B00F0AA
:10118000C9FB204610BD00BF0875020810B5044613
:10119000543004F0A7F8201D04F0A4F8204610BD38
:1011A00010B50260029A42608360C16010BD2DE9F3
:1011B000F04782462DED048BCAF81C10084608EE55
:1011C000101A08EE902A1E461DF040FE02460B46FD
:1011D0001DF090FE044630460D461DF037FE0246D7
:1011E0000B46204629461DF085FE78EE089A0646F5
:1011F00019EE900A0F461DF029FE78EEA87A0446F3
:1012000067EE887A0D4617EE900A1DF01FFE3246F3
:101210003B461DF0BDFC9DED0C9A804619EE100A70
:1012200089461DF013FE02460B46404649461DF016
:10123000AFFC22462B461DF087FF1EF03DF9F8EE6D
:10124000007A68EEA78ACAF8100068EE887A17EE6E
:10125000900A1DF0FBFD32463B461DF099FC79EEED
:10126000097A064617EE900A0F461DF0EFFD02467A
:101270000B46304639461DF089FC22462B461DF0B0
:1012800063FF1EF019F9C9EE297ABDEC048BCAF888
:101290001400CAED067ABDE8F0870069704740691E
:1012A000704780697047C0697047000010B5054CF1
:1012B000204604F0C3FC2046034A0449BDE8104020
:1012C00004F070BB380D002098010020555D000827
:1012D00030B5C3600C25039B4561416082600361AA
:1012E00030BD0021406800F02EBA000010B5044661
:1012F0002DED0C8B0069DFED35DADFED35AA0CEE54
:10130000901AFFF7CAFF0BEE100A2069FFF7C7FF1C
:101310000BEE900A2069FFF7C4FF0CEE100A20695B
:10132000FFF7C1FF09EE100AF0EE6D8AB0EE6DDA3C
:10133000B0EE6D8AE06803F079FF09EE900AA068CC
:1013400000F0EEF807EE900A3CEEE7AA68EEAB7A02
:101350006369EBEE0A7AEDEE8C7A3DEE27DA07EE62
:10136000903AB8EEE77AB4EEC7DAF1EE10FA2ADC7A
:101370005B4207EE903AF8EEE77AB4EEE7DAF1EE88
:1013800010FA58BFF0EE4D7AC7EE876A606816EE25
:10139000901A00F0D8F939EEC88AB4EEC89AF1EE86
:1013A00010FA09DD39EE488A28EE2A8AFDEEC87A5D
:1013B00017EE900A04F0BEF9F0EE68DAB0EE698A32
:1013C000F0EE4A8AB6E7F0EE477ADDE7000000006B
:1013D00000007A4410B5054C204604F02FFC20464E
:1013E000034A0449BDE8104004F0DCBA390D00207E
:1013F00098010020555D000838B50446406804F0A7
:1014000029FBA5684DB105F1540003F06BFF281DC1
:1014100003F068FF284604F01DFBE06804F01AFBA7
:10142000206904F017FB204638BD034610B107C9F8
:1014300083E807007047704742688168036812F0CC
:10144000010F4FEA62021CBF8858C358881818471A
:1014500038B50446043003F03DFF054604F154005E
:1014600003F038FF237840EA4500C4F8B000E3B940
:10147000D4F8AC30032B06D140B9D4F8B8300133DE
:10148000C4F8B83002E023B90328F6D0C4F8AC00A1
:1014900038BD022B05D10128F8D1D4F8B830013B72
:1014A000EEE7012BF2D10228F6E7012BEED1D4F8BA
:1014B000AC3080EA0302032AE8D09842E6D083EAFF
:1014C000600313F00103D4F8B82008BF4FF0FF33D6
:1014D000D31AD5E7D0F8B80070470000D0B504465D
:1014E000D0F8B8001DF0A0FC00220C4B1DF002FD4E
:1014F000D4F8A4300646D4F8A8005843D4F8B43041
:1015000058430F461DF090FC02460B4630463946C4
:101510001DF01AFE1DF0D0FFD0BD00BF0080764048
:10152000D0B50446D0F8B80040001DF07DFC0EA3F5
:10153000D3E900231DF0DEFCD4F8A4300646D4F82D
:10154000A8005843D4F8B43058430F461DF06CFC43
:1015500002460B46304639461DF0F6FD1DF0ACFF45
:10156000D0BD00BFAFF3008038E92F54FB21094004
:1015700070B586B08DE80C000E46054600F060FCA4
:10158000009B0293019B039302A9064B05932846F7
:10159000049603F021FF02A8FEF7B4FF00F066FCFA
:1015A00006B070BD4C77020870B586B08DE80C00AF
:1015B0000E46054600F044FC009B0293019B0393FA
:1015C00002A9064B05932846049603F02BFF02A8B8
:1015D000FEF798FF00F04AFC06B070BD4C77020899
:1015E0002DE9F043044689B000F104091746484646
:1015F00004F154051E469DF8448003F0A3FE3946CD
:10160000284603F09FFE0022109BC4F8B820C4F8BF
:10161000A460C4F8BC20C4F8A83084F80080B8F1F5
:10162000000F39D10223C4F8B430484603F052FE0B
:101630000646284603F04EFE1A4F009740EA460041
:10164000002601969DE80C00C4F8B000C4F8AC0078
:1016500021464846FFF78CFF0297039602AB0CCB5E
:1016600021464846FFF7A0FFB8F1010F10D10497BB
:10167000059604AB0CCB21462846FFF779FF069769
:10168000079608AB13E90C0021462846FFF78CFFAC
:10169000204609B0BDE8F083B8F1010FC5D104239D
:1016A000C1E700BF511400082DE9F0411C26044693
:1016B0000D469046002132461F461EF0D5FE2946B3
:1016C0002046A51900F0BAFA3246002128461EF03D
:1016D000CBFE4146284600F0B1FA00F0B1FB04F120
:1016E0003800394602F0C0FA00F0C0FB2046BDE8E1
:1016F000F08138B5836802681A60C369826A1B0486
:1017000004460D46136000F09BFB294604F13800A7
:1017100002F090F9BDE8384000F0A8BB38B5036886
:10172000C2681B041360436AC2691A6004460D460E
:1017300000F086FB294604F1380002F07BF9BDE891
:10174000384000F093BB07EE901AB7EE007AF4EE43
:10175000C77AF1EE10FA03DB17EE101AFFF7C9BFD4
:10176000FFEE006AF4EEE67AF1EE10FA03D817EE17
:10177000101AFFF7D3BFF5EEC07AF1EE10FAEDDCE8
:10178000F1EE677A17EE901AF3E700000748084A6F
:1017900008B5121A00211EF067FE04F0C0F81EF012
:1017A00033FC04F0C3F804F0FFF800BF90040020FD
:1017B000EC440020022801DD04F064B801207047E9
:1017C00008B5012004F0F0F808B5FFF7F9FF0000B4
:1017D00030B502680D68044CB5FBF4F31A4404FB01
:1017E000135302600B6030BD00CA9A3BD0F8C02092
:1017F000D0F8C400101A18BF0120704701207047AC
:1018000010B5D0F8C420D0F8BC100346501CC3F863
:10181000C400885CD3F8C820D3F8C440013AB4FBB4
:10182000F2F102FB1142C3F8C42010BD034610B10F
:1018300007C983E8070070477047426881680368FA
:1018400012F0010F4FEA62021CBF8858C358881873
:10185000184730B5044685B000F14C05284602F023
:101860002BFD30B3D4F8D020D4F8D4309A4216D01F
:10187000D4F8D430D4F8CC20591CC4F8D410D15C9E
:10188000D4F8D830D4F8D400013BB0FBF3F203FB1A
:101890001203C4F8D430284602F018FDDEE7002316
:1018A000204601226946039303F08EFE6846FEF748
:1018B00029FE05B030BDC36810B504460BB19B6866
:1018C0009847204610BD000070B506460B4B46F801
:1018D000983B044646B100F1B805B54204D0103D2E
:1018E0002846FEF70FFEF8E704F13800FFF7E3FFA4
:1018F00004F12800FFF7DFFF204670BD347D0208A9
:1019000010B50446FFF7E0FF204604F0A3F8204698
:1019100010BD000030B5134B036085B000252A468A
:1019200069460446039503F04FFE6846FEF7EAFD5C
:10193000012269462046039503F046FE6846FEF7FD
:10194000E1FD04F1CC0000F023F904F1BC0000F04B
:101950001FF9054B23602046FFF7B6FF204605B070
:1019600030BD00BFE87702080C7D020810B50446C0
:10197000FFF7D0FF204604F06DF8204610BD0000B0
:1019800010B586B08DE80C00019B02920393049180
:10199000054B9DF82020059302A903F015FE02A82F
:1019A000FEF7B0FD06B010BD587702087FB50446BB
:1019B0001D464FF41653089E03F06EFC20460F4B55
:1019C00040F8BC3B294600F0F2F806FB05F104F1B3
:1019D000CC0000F0ECF80A4B029300230393009331
:1019E00004AB204613E90C002146FFF7C9FF20464F
:1019F000C4F8DC50C4F8E06004B070BDE8770208B9
:101A00006B1A000870B5044686B04C3002F054FCE6
:101A1000C0B102AD0122294600262046059603F0FA
:101A2000D3FD2846FEF76EFD2046FFF712FF064B5A
:101A3000029301230396009395E80C00214620466B
:101A4000FFF79EFF06B070BD531800084368026898
:101A500010B55C1C4460D154C3684168013BB1FBC4
:101A6000F3F203FB1213436010BD38B500F14C05CF
:101A70000446284602F004FC38B1284602F00AFC6D
:101A8000C1B204F1BC00FFF7E1FF38BD38B505462F
:101A90000C46CC30C9B2FFF7D9FF2846FFF7B2FF9A
:101AA000204638BD2DE9F04107460C46B1B10D4640
:101AB00000F1CC082E4616F8011B21B14046FFF775
:101AC000C5FF3546F6E70A214046FFF7BFFF2C1B4E
:101AD0003846FFF797FF601CBDE8F0810846BDE877
:101AE000F0812DE9F04107460D4691B1A2B18C1865
:101AF0000E4600F1CC08B44205D016F8011B404652
:101B0000FFF7A4FFF7E73846FFF77CFF601BBDE84F
:101B1000F0810846BDE8F0811046BDE8F081000084
:101B20000EB42DE9F04185B0D0F8DC2002AFD31D12
:101B300023F0070307F12404ADEB030D54F8048BE5
:101B400002AE0546002130461EF08EFC224641467C
:101B500030467C6021F060FBD5F8DC3083420246E1
:101B60000CD200905D220848084900F093F900204B
:101B70000C37BD46BDE8F04103B0704731462846FA
:101B8000FFF7AFFFF4E700BFA3770208647702080E
:101B900010B50446006808B103F058FF204610BD98
:101BA00000214160C268816000681EF05DBC38B5EC
:101BB000044608460D4603F03DFFE56020602046E0
:101BC000FFF7EEFF204638BD70B50E4604461546B9
:101BD00001F092FE013609D02046002101F0B0FE4E
:101BE00029462046BDE8704001F0A6BE70BD38B55C
:101BF00004460D4603685AB18268136020460121ED
:101C000001F09EFE29462046BDE8384001F094BE12
:101C1000C2681B04F1E70022FFF7D6BF70B50E467D
:101C20000446154601F068FE013606D02A462046D5
:101C30000021BDE87040FFF7DABF70BD0022FFF75A
:101C4000EDBF00000048704714780208014800F01A
:101C50000CB800BF1478020838B5036804461B6846
:101C60000D46984763681D6038BD036870B5DB6832
:101C70000446984763685A6823681AB99B68BDE8A8
:101C8000704018475B68156898476368281A0028F1
:101C90005A6807DC916859601B68002BEAD05068CD
:101CA0009847E7E7236810681B69BDE8704018474C
:101CB000F8B506460C461F46154600F0C1F8706898
:101CC00084E8A0004368002153B9A36079B9336860
:101CD00044601B6928469847BDE8F84000F0C6B844
:101CE0001A68AA1A002AF0DB19469B68ECE78C6098
:101CF000F2E738B505460C4600F0A2F86A6853686A
:101D0000A3420ED19B6853602A682BB99368984709
:101D1000BDE8384000F0AAB8126918689047F7E7A4
:101D20001346002BF4D09A689442F9D1A2689A60C5
:101D3000EEE703685B68184710B5044601300DD123
:101D400010BD9C4209D12046896802F05BF820460C
:101D50000021BDE8104002F0D9B80C31B1F90030D3
:101D60005A1CEED10248BDE8104000F093B800BF05
:101D70007F780208884208B508D0431C06D001319C
:101D800006D0044800F086F84FF0FF31084608BD41
:101D90000146FBE74E780208B1F900305A1C01D128
:101DA00018467047834201D1486870470C31F3E709
:101DB000421C10B5044607D0FFF7EEFF431C044653
:101DC00002D1024800F066F8204610BD5F78020894
:101DD000B1F900305A1C01D118467047834201D135
:101DE000886870470C31F3E7421C10B5044607D0F1
:101DF000FFF7EEFF431C044602D1024800F04AF808
:101E0000204610BD3078020800B589B000F018F8FF
:101E1000052101A8FFF712FF039B019A1A60962083
:101E200003F088FC019B049A1B041360962003F0C6
:101E300081FCF1E7EFF31080C04300F00100704730
:101E400008B5FFF7F7FF72B6064B1A6822B980F0A3
:101E50000100054AC0B210701A681A6801321A608F
:101E600008BD00BF480D0020440D002008B5074BF9
:101E70001A6852B1FFF7DEFF1A68013A1A601B6850
:101E80001BB9034B1B7803B962B608BD480D00208F
:101E9000440D00200FB4012008B503F085FD01F0CA
:101EA00078BD000008B5024C23689847FCE700BFE6
:101EB000A801002008B50B4800F0AAFD0A4B1860E5
:101EC0000A4800F0A5FD0A4B18600A4800F0A0FD82
:101ED000094B18601EF098F800210846BDE808403C
:101EE00003F024BDDC780208BC430020D878020847
:101EF000540D0020D47802084C0D0020FFF7D2BF0B
:101F000010B5044600F0F2FC21460246BDE8104040
:101F10000148FFF7BFBF00BF9C78020803F09CBDDB
:101F20000B4A0C4B0C4830B41A60C2F1005303F555
:101F30000033B3F5806F194628BF4FF48061074D19
:101F4000074C01605B1A1A442A60236030BC70475A
:101F5000EC440020B0230020580D00205C0D002030
:101F6000AC23002000F028FEFFF7DAFF0348002131
:101F700000F0D6FD00F03CFCFEE70000AC010020C4
:101F8000024B4FF0FF31186800F060BD540D002087
:101F9000014B186800F082BD540D0020024B4FF039
:101FA000FF31186800F052BD4C0D0020014B18683D
:101FB00000F074BD4C0D002030B502788C78436879
:101FC000013AD2B213B19D78A54207D2022A4B60E2
:101FD000416006D803B19960886030BD18465B68DF
:101FE000F0E700238B6030BD02784368013A5968FE
:101FF0004160022A4FF0000205D809B188605A609A
:102000009A60184670475A60FBE70000034B5A6815
:102010004260002282605860704700BFC0430020C9
:10202000104BDA6810B58AB19A8ADC688A420CD300
:10203000C460D860C468036104B12061521A92B2CE
:102040008282998A8A1A9A8210BD3CB900248A1A1F
:10205000C460D86003619A82848210BDA38A1A4446
:102060002346E2E7D84300202DE9F041174DEB6805
:1020700053B1AB8A164FDFF85C80013BAB82002680
:10208000AA8A0AB9EC680CB9BDE8F081A36833B13B
:1020900061685960616809B18B606260A660214621
:1020A0003846FFF789FFA38AAB826378042B01BF10
:1020B000D8F80030E28A9B18A38201236370E3689A
:1020C000EB600BB11D61E6602661D9E7D8430020C3
:1020D000C04300205844002083682BB142685A60F6
:1020E00042685AB193607047054B5A68904202D1DA
:1020F00042685A6070471346002AF6D1704700BF05
:10210000C043002010B5846801462CB94378012BE8
:102110000DD1074C03E0A4682378002BFBD00846C0
:10212000FFF7DAFF2046BDE81040FFF745BF10BDBE
:10213000C0430020036910B563B1C268DA60C268A9
:102140004AB1998A848A2144998213610023C36029
:102150000023036110BD9A82FAE7000070B4114BAE
:10216000DD78EFF31086EFF3108272B69A7895421D
:1021700011D901329A701A78541CA54208BF002464
:102180001C7006B962B6954207D903EBC20370BC56
:10219000586099607047002EF4D0022070BCFFF7A1
:1021A000AFBE00BF683F0020836A9B0804BF224B7C
:1021B0001B88F0B5056B08BF9B0805EB830254072D
:1021C00048BF043A4FF0807602E94200A2F1400491
:1021D000A2F14406A2F10C074FF0000E46F804EFFE
:1021E000BE42FBD1C66942F8206C41631249C46209
:1021F0000968C90017D5112B15D9103B6FF00701DD
:102200005B084B43A3F138010A444FF0CC30214620
:1022100091420BD108331C44231F9D423CBF4FF019
:10222000CC3344F8043C054B2B60F0BD41F8040C62
:1022300041F8080DECE700BFE4780208A52E5AE249
:1022400090F82520C36A12B16033196070472033BB
:10225000FBE710B590F82540C36A1CB1603383E8F2
:10226000060010BD2033FAE7054B1B7823B9054B58
:102270004FF080521A607047034B01221A7070476A
:10228000B01D002004ED00E0B11D002038B51A4B50
:102290001A4C186801234370FFF7B8FE6578A378DD
:1022A0003BB917486570FFF79FFEBDE8384000F066
:1022B0005DBD04EBC503586802789AB9198900F02E
:1022C000BBF9E37801359D4208BF0025EFF3108389
:1022D000EFF3108272B6A278013AA270002BDED121
:1022E00062B6DCE7012A03D1996800F033F9E8E728
:1022F00001F044F8E5E700BF10440020683F0020EB
:10230000C0430020084B1A68084B1A6000225A602C
:10231000072243F8042C064A136843F07F431360F6
:102320004FF0FF30704700BFFC78020814E000E077
:1023300020ED00E07047000008B50B4B1868012342
:102340004370FFF763FE00F0ADF9084A13680133EC
:102350001360FFF789FE00F091FC0548FFF744FE8B
:10236000BDE8084000F002BD1044002058440020A1
:10237000C0430020064B1A68136BD26A934203D8FD
:102380001A68044B9A4202D00120FFF7B9BD70478A
:1023900010440020A52E5AE2002ABBBF22F00042C2
:1023A0000732033222F00702A8BF22F0030210B561
:1023B000B4BF10230C2392B1D4188C420FD801441F
:1023C0000344544241600360826021449818814272
:1023D00002D300510346F9E70020186010BD012028
:1023E00010BDEFF3108372B6026803F001030AB167
:1023F0001168016003B962B61046704781420DD37F
:10240000436899420AD2EFF3108372B602680A60F9
:10241000016013F0010003D162B6704701207047DC
:10242000002070470123103903708908002343708E
:1024300083704360038143818381C18170470000C1
:1024400070B5858904461646002D38D043891A1D7B
:10245000013350F822200A60C2899BB29A4243811C
:1024600004BF002343814368F3B14378022B1BD19F
:10247000FFF7BAFD00210546FFF7E2FE2389E9696F
:102480001A1D013344F82210E2899BB29A4223813B
:1024900008BF0023284608BF2381FFF74BFE2846CC
:1024A00000F07EFC002070BDEFF31080EFF310838E
:1024B00072B6013DA5810028F4D162B670BD4AB163
:1024C0004268094B42B11968FFF776FD0821304692
:1024D00000F08AFC012070BD1B6843605A60986060
:1024E00001234370F2E700BF10440020C2898089B5
:1024F000101A704708B5FFF731FEBDE80840FFF736
:10250000B3BE838910B504460BB34389043350F836
:1025100023300B604378022B04D10021FFF71EFE0D
:10252000FFF7A2FEEFF31083EFF3108272B6A289D9
:10253000013AA28103B962B66389E28901339BB291
:102540009A42638101D100236381042010BD1846A3
:1025500010BD0000436870B504460E46002B4BD0FA
:102560004578022D20D0032D0AD0012D61D1FFF72F
:102570003BFD044632461021FFF76BFE65700EE00E
:102580000846FFF72EFF0546002852D02046FFF7E9
:102590002BFD29460446FFF753FE012363702046B6
:1025A000FFF7C8FD214622E0FFF71EFD002105468A
:1025B000FFF746FE2389E9691A1D44F82210EFF35C
:1025C0001082EFF3108172B6A1890131A18102B9A5
:1025D00062B6E28901339BB29A42238104BF002391
:1025E000238101236B702846FFF7A4FD294611487B
:1025F000BDE87040FFF7E0BC8089E189884213D2D2
:1026000023891A1D44F82260EFF31082EFF310853E
:1026100072B60130A08102B962B601339BB2994211
:1026200008BF0023238170BD0320BDE87040FFF781
:1026300067BC70BDC043002010B5038B42781943BE
:10264000062A04460183438B15D133EA010219D1CE
:1026500021EA030121832046FFF76CFD0123204678
:102660006370628B0821FFF7F4FD21460648BDE840
:102670001040FFF7A1BC052A04D111EA030201D0E2
:102680004283E5E710BD00BFC0430020034B00229A
:102690001A60034A1268DA80704700BFF8430020CE
:1026A000E078020808B50E4B5A680E4B1968914243
:1026B0000D4905D01A60DA880868013A02449A8008
:1026C00098880A8890420AD1002205481A60FFF7CC
:1026D0008BFCBDE8084001460148FFF76DBC08BD12
:1026E000C0430020F8430020584400200B4A1368E0
:1026F00030B5002443B90360816013B19D68691A45
:10270000996044B1206030BD9D68A942F3D31C4656
:10271000491B1B68EEE7106030BD00BF0844002075
:10272000C0B1431C11D00C4B984211D80B4B1B6805
:102730004FF47A715A1E01FB0020B0FBF3F34FF601
:10274000FE70834206D898B270474FF6FF7070470C
:102750004FF6FE70704700BF00093D0098780208F0
:1027600038B1830704D10378002B18BF00207047CD
:1027700000207047B0B50E4D287800AFA8B90D4CB9
:10278000236893F8241000F051FB2368DA78FF2ABD
:1027900003D1DA6A203282F3098862680AB984E8D0
:1027A0000C0000F0FBFC01232B700020B0BD00BF2B
:1027B0000C44002010440020014B1878704700BFE3
:1027C0000C44002010B5EFF3108434B9EFF3058406
:1027D0001CB9EFF31484E40702D4034B187810BD3E
:1027E000DFF808C000DF10BD0C440020B927000846
:1027F00090B589B000AFEFF31083002B37D1EFF322
:102800000583002B33D1FFF7DDFF28B9194C24686D
:1028100014B1646804B1A047EFF3148404F0030416
:10282000022C18D0032C1CD0012C1ED007F1200440
:1028300084F30988104C2478E40710D5022484F32B
:102840001488BFF34F8FBFF36F8FDFF830C000DF06
:102850002437BD4690BD084C2478E407F5D4032402
:10286000EDE7054C2478E407EFD5FF20F0E7822060
:10287000EEE700BFF4430020C67802087527000881
:1028800070B50B461646024610B90024204670BDAE
:1028900000680028F9D0B2F90440E51CADB2062D5D
:1028A000F3D8D168C1B11269043444EA012100F0BF
:1028B000FBFA0028E9D00A4B0A4A013853F82040B5
:1028C000E36A5A63084B1B6843B19B6833B13146D6
:1028D000E0789847E063D9E70A46E5E7E663D5E79D
:1028E0001C3D00206D2A0008F443002008B500F0CC
:1028F00095FA18B10138024B53F8200008BD00BF0B
:102900001C3D002010B5FFF72BFF044670B1084BAB
:102910001B681BB1DB680BB1C06B9847E07800F017
:1029200019FBFF280CBF8120002010BD802010BDA6
:10293000F443002008B528B1FFF7F2FE00F01AFDBD
:10294000402008BD08BD000010B5EFF3108434B975
:10295000EFF305841CB9DFF80CC000DF10BD822046
:1029600010BD000035290008830705D138B143693F
:1029700001691B681846704700231946FAE70346A9
:10298000FBE7000010B504460846DFF80CC000DF86
:1029900084E80300204610BD6929000810B548B13D
:1029A000046824B1237823B9204600F03DFC20467A
:1029B00010BD002010BD70B510F0030405460E4692
:1029C00011D180B10378032B0DD10846FFF7A8FE83
:1029D0000146284600F0A0FC012806D1002E14BFB5
:1029E000C120812070BD802070BD204670BD82074F
:1029F00008B50AD148B10378032B06D100F01CFCBE
:102A0000FF280CBF8120002008BD802008BD0000E9
:102A100070B50546EFF3108494B9EFF305867EB9DF
:102A2000EFF31484E40706D4064C24781CB9BDE8FF
:102A30007040FFF7B3BF2846DFF80CC000DF70BD61
:102A4000002070BD0C4400209D29000810B5EFF354
:102A5000108434B9EFF305841CB9DFF80CC000DF33
:102A600010BD822010BD0000B7290008084808B535
:102A70004FF0FF310068FFF7E9FFDFF818C000DF13
:102A80000446FFF74BFA2046DFF80CC000DFFEE7F4
:102A900004440020ED2800080529000810B5EFF3D4
:102AA000108434B9EFF305841CB9DFF80CC000DFE3
:102AB00010BD822010BD0000EF2900082DE9F04173
:102AC00080460F461646EFF3108404BBEFF30583F0
:102AD000D3B9EFF31483DB0706D40E4B1B781BB975
:102AE000BDE8F041FFF7CCBE0B4D4FF0FF31286839
:102AF000FFF7ACFF404639463246DFF820C000DF22
:102B000004462868FFF7CAFF2046BDE8F08100248C
:102B1000FAE700BF0C44002004440020812800088C
:102B20000022FFF7CBBF10B5044660B1016851B178
:102B3000406848B1037833B90431890089B2FFF79E
:102B400071FC606810BD002010BD000038B5114C4C
:102B500023780BB900F0A8FA0F4B25781B68FF22E9
:102B60009A708DB929460D48FFF7DDFF0C4B2A46B8
:102B7000186029460B48FFF783FE0B4B18600B4883
:102B8000FFF746FF0A4B186001232370094B002012
:102B9000187038BD0044002010440020CC78020892
:102BA000183D0020E8780208EC3F00200079020878
:102BB000044400200C44002010B5EFF3108474B9D5
:102BC000EFF305845CB9EFF31484E40703D4BDE8A4
:102BD0001040FFF7BBBFDFF80CC000DF10BD822044
:102BE00010BD00004D2B00082DE9FF410C4680462A
:102BF00018B30378012B25D10846FFF791FD02A9F0
:102C000002464046FFF71CFC012811D10020002C91
:102C10000246034618BF4020029904460D46164658
:102C20001F462046294632463B4604B0BDE8F081A7
:102C30000020024603461020EEE7802405460646A3
:102C40000746EEE7002580242E462F46E9E770B5BB
:102C50000E461446054660B15AB90378012B08D1D7
:102C6000FFF744FC38B128463146FFF743FC2046C5
:102C700070BD802070BD812070BD0000F8B5114E80
:102C800034682CB1A368104F013BA360A26802B165
:102C9000F8BD2568386835602146FFF7D8FF10B1C8
:102CA0000420FFF72DF96379012B07D1E168204655
:102CB000FFF71CFD002DEBD02C46E7E70123237125
:102CC000F8E700BF08440020183D00207FB5044607
:102CD0001646084601B122B180232360204604B085
:102CE00070BD0B78012BF7D102A9FFF70AFC04286D
:102CF00008BF102301AD14BF0196019395E80700AA
:102D000084E80700EAE7000038B504461546EFF30B
:102D1000108010B9EFF3058028B12A462046FFF74E
:102D2000D5FF204638BD08461146DFF80CC000DF4D
:102D300084E80700F5E70000E92B00087FB50A4C9E
:102D400021684FF0FF3203A8FFF7DEFF039B102B33
:102D5000F6D1049901A8FFF715FE019B002BEFD0D7
:102D600002989847ECE700BF183D0020054B5860DB
:102D700002234370044B1B681BB11B690BB1C06B72
:102D80001847704710440020F443002008B503485A
:102D9000FFF72AF9BDE80840FFF7E8BFC04300206D
:102DA00070B5044618B9BDE87040FFF7EFBF0C4E90
:102DB000A278306883789A424FF0010508D9FFF76E
:102DC00025F933685D702046BDE87040FFF7CEBF3F
:102DD000657021460348BDE87040FFF7EDB800BFBD
:102DE00010440020C043002038B50D46014680B194
:102DF0004FF6FF739842074C02D02068FFF710F996
:102E0000236805485D70FFF7EFF8BDE83840FFF72D
:102E1000ADBF38BD10440020C0430020024B1868ED
:102E200000B1C078704700BF1044002010B5A8B9A9
:102E3000194B1B68997083F82410184843689B78D5
:102E40008B4201D8002010BD134C2168FFF7B4F865
:102E5000236801225A70FFF799FFF3E7104B1B8894
:102E6000984217D801380F4B53F8204094B10A4BC1
:102E7000A1701B6884F824109C42DED02046FFF726
:102E800041F96378012BDDD10448FFF7ADF8FFF776
:102E900087FFD7E7FF2010BD10440020C04300206B
:102EA000C87802081C3D00202DE9F04711F0FF0F03
:102EB0000D468046234816469A4608BF0135FFF75F
:102EC00090FA044620B94FF000094846BDE8F08763
:102ED0001D4B06631B881D4E280AA06200218B42F1
:102EE00001F10109EFD006EB89020F4652F8042CDC
:102EF0004946002AF3D1EDB2012384F80390C4F8C7
:102F00001CA0C4F838A022706370A57084F8245007
:102F10006260A260E26022612262A282E282228377
:102F2000628384F8252018B90948FFF75AFA20630C
:102F300020464146FFF738F9204646F82740FFF77C
:102F40002FFFC2E7F03F0020C87802081C3D002098
:102F5000583D00202DE9F84F4D4D18B12B68DB7816
:102F6000984241D12C68DFF83C810023637002F065
:102F700080FDE062FFF7FEF92B681C6A0127A4B907
:102F80002A684449D3784448013B41F82340116BF7
:102F9000FFF734FA296841480C63FFF72FFA2C60D9
:102FA000FFF7F4FE2046BDE8F88F6368B3B1204612
:102FB000FFF71AF800210646FFF742F93046FFF7FF
:102FC000B9F8777031464046FEF7F6FFE368326A9B
:102FD0006780A660E26034621C46D0E7E2686380E6
:102FE000A360E3601446CAE72D4B1B8898424DD876
:102FF000284B471E994653F82760002E46D030468E
:10300000FFF76AF83046FFF795F8DFF898B0346AB2
:103010004FF0010AB4B9316B1F4849F82740FFF758
:10302000EDF9314634631D48FFF7E8F91D4829687A
:1030300043689A788B789A42B4D901234B70FEF793
:10304000BBFFADE76368DBB12046FEF7CDFF002193
:103050008046FFF7F5F84046FFF76CF888F801A0C6
:1030600041465846FEF7A8FFE368D8F82020A4F8A8
:1030700002A0C4F80880E260C8F820401C46C9E7F6
:10308000E2686380A360E3601446C3E7FF2489E736
:10309000104400201C3D0020583D0020F03F00203F
:1030A000C8780208C043002038B52C4B2C491A8838
:1030B0000023184693424DD32A4B2B4819882B4C9A
:1030C0004022FFF769F92A4B2A481A882A4B42F016
:1030D00000421968FFF760F9284B1988284B08222D
:1030E0001868FFF759F9FF230025E3702148A5620E
:1030F000012363702570A57084F824506560A56075
:10310000E56025612562A582E5822583658384F8D3
:103110002550FFF766F91B4920632046FFF744F866
:10312000194B04221A705D60184B1A70DD601D6126
:103130009D82174B20461C6002236370FFF716FE2A
:10314000144A154B12781D705D70DA70BDE8384076
:10315000FFF79CBA41F823000133ABE7C8780208B7
:103160001C3D002094780208F03F00201844002005
:10317000E4780208583D002090780208967802080A
:10318000500D0020FD1E0008C0430020D843002041
:1031900010440020C5780208683F002008B51E4B87
:1031A0001A6842F47F021A601B681B0203F07F4317
:1031B000DB43B3FA83F3194A194812680168DBB29A
:1031C000C3F10803C2F30222934298BF531C6FF06D
:1031D000807202FA03F303F07F4321F07F4213432E
:1031E0000360FFF78FF80F4B0028186012DB00F127
:1031F000604000F56440FF2202701A6853099B008A
:1032000003F1604303F5614302F01F02012101FA5B
:1032100002F21A6008BD00BF20ED00E00CED00E0F6
:103220001CED00E0F04300200323037000234380E3
:1032300043608360C36070472DE9F84343880546C7
:10324000002B63D0324F81683A6891425ED1013BD6
:103250009BB243801BB100242046BDE8F8830B6A73
:10326000984229D1C3680B6291F824300C6A5CBB88
:103270008B706A68DFF89C80002A3BD02846FEF7F6
:10328000B3FE21460646FEF7DBFF3046FEF752FF4F
:10329000336AEB604FF001093968D8F80430A5F8BB
:1032A0000290AE6035628A789B789A4214D3304699
:1032B000FFF776FDD0E71346002BD5D0DA689542AC
:1032C000F9D1EA68DA60CFE762681AB1927893427E
:1032D00038BF1346E468CAE74046FEF76DFE314644
:1032E0004046FEF769FE3B6883F8019086F801903E
:1032F0002046DDE7D8F8042092789A42ABD94046C0
:10330000FEF75AFE3B6801225A70F1E7FF24A3E75B
:1033100010440020C0430020438870B504460E4688
:10332000134D43B92A688260116AC160106201338B
:103330006380002070BD80682A689042F7D081B118
:10334000937882789A4202D28370FEF7DBFE62683D
:103350004AB129682046FEF72FFE09213046FFF7C3
:1033600043FD012070BD2B6863605A609C60F4E7E8
:10337000104400200321FFF737BD0000426810B55C
:103380007AB1FEF731FE0446FEF7D4FE01216170EA
:103390002046FEF755FF21460448BDE81040FEF7E1
:1033A0000BBE42880132428010BD00BFC0430020E6
:1033B00070B5134C23681A69950707D5DA6890072A
:1033C00004D56FF002021A61FEF740FC23681A6907
:1033D000510713D5DA68520710D56FF00402094E71
:1033E0001A615D6A3368EB1AB3F57A7F06D301F090
:1033F0009FFE236805F57A729A63356070BD00BF41
:103400005C440020C41D002030B589B001A903A888
:1034100001F056FE01F024FE00230293244B01909C
:103420001A6C244C42F008021A641A6C02F008026A
:103430000292029A1A6A42F008021A621A6A22F08A
:1034400008021A62069AA3F50B3323604FF0FF338C
:10345000E360194B4ABBB0FBF3F001380025606014
:1034600014482561A560656101F03CF913493220DB
:1034700001F056F8124B0F484FF480225A6029464B
:1034800001F014FA04210B4801F010FA23680D4AE8
:10349000596A1160126802F57A729A63DA682846EE
:1034A00042F00402DA6009B030BD4000D3E700BF4B
:1034B000003802405C44002040420F00B133000855
:1034C00000E100E0C41D0020034B044A1360DA68E9
:1034D00022F00402DA607047000C00405C440020D7
:1034E000034B044A1360DA6842F00402DA60704762
:1034F000000C00405C440020F8B54C26134B4643BA
:10350000341D0F461C4400251E44BD4200D1F8BDA9
:103510000121336801FA05F21A4213D00C4A236BD9
:10352000506901FA03F303420CD0D4F818E0536158
:10353000206838B1DEF810201342064B08BF022184
:103540001B68984701350434DFE700BFC81D002021
:10355000003C0140DC1F002001210020FFF7CCBF10
:1035600001210846FFF7C8BF01210220FFF7C4BFB1
:1035700001210320FFF7C0BF01210420FFF7BCBFDA
:1035800005210846FFF7B8BF06210846FFF7B4BF7C
:10359000012910B510D1144C838932B1A26803F00F
:1035A0000F0399401143A16010BDA26803F00F03FF
:1035B000994022EA0101F6E702290AD10A498389E2
:1035C00042B1C86803F00F03012202FA03F3034378
:1035D000CB6010BDCA6803F00F03012000FA03F3AB
:1035E00022EA0303F4E700BF003C0140B0F90C30CD
:1035F0009AB202F00F0170B501F00C0404F180449E
:1036000004F59C3402F00302A56892000F26964050
:10361000C3F30313934025EA0605094A2B43A3602D
:103620001468012303FA01F12143116090F900208D
:10363000510902F01F029340024A42F8213070BD46
:10364000003C014000E100E02DE9F04F9B464B1C9F
:1036500085B007460C46924664D000230393324B54
:103660005A6C42F480425A645B6C304A03F48043E3
:103670000393039B01F00F080C2303FB0823C1F302
:1036800003105D68062D45D8DFE805F004383A3CA4
:103690003E404200264E019200F0B4F80C21019AFF
:1036A000BC8101FB08F1531852F801E0214993F95C
:1036B00008C087F800C04C226A4301248B587D6003
:1036C00004FA0EF41C434FF00009C7F808908C5020
:1036D000132202FB05E501EB85023146D061C2F8F9
:1036E00004B0C2F83480144A6046C2F800A000F06A
:1036F00017FF3846FFF77AFF484610E00F4ECAE73B
:103700000F4EC8E70F4EC6E70F4EC4E70F4EC2E795
:103710000F4EC0E70F48FEF7BDFB4FF0FF3005B07E
:10372000BDE8F08F0846FAE700380240187A020830
:1037300059350008C81D0020DC1F00206135000835
:1037400069350008713500087935000881350008B1
:10375000893500080479020810B58389124C0122CA
:10376000216803F00F0302FA03F321EA0303236045
:1037700090F900300D4C5909203103F01F0302FA73
:1037800003F344F82130BFF34F8FBFF36F8F90F9ED
:103790000030590903F01F039A4001F1600344F817
:1037A00023200023836010BD003C014000E100E0C5
:1037B000838903F00F020C235343104A70B5446809
:1037C000D658FFF7C9FF4C210D4A6143012000FA8A
:1037D00006F55058132303FB046320EA05005050FC
:1037E00002EB830000214160981D0C3302EB800046
:1037F00002EB83034160596070BD00BF187A020874
:10380000C81D00207FB50023072855D8DFE800F049
:103810000413202D3A54544700932A4B2A481A6B1C
:1038200042F001021A631B6B03F001030093009B3B
:1038300007B05DF804FB0193224B24481A6B42F059
:1038400002021A631B6B03F002030193019BEFE773
:1038500002931C4B1E481A6B42F004021A631B6B46
:1038600003F004030293029BE2E70393154B19480C
:103870001A6B42F008021A631B6B03F008030393F0
:10388000039BD5E704930F4B13481A6B42F01002C9
:103890001A631B6B03F010030493049BC8E70593A2
:1038A000084B0E481A6B42F080021A631B6B03F040
:1038B00080030593059BBBE70948FEF7EBFA002060
:1038C000B6E700BF0038024000000240000402409A
:1038D00000080240000C024000100240001C0240A0
:1038E0002B79020810B50021044604F00F0400F003
:1038F00089FA0120A04010BD70B504464B1C0E464D
:10390000218216D0C1F30310FFF77CFF0546304635
:10391000FFF7E8FF238A074A656103F00F03206081
:1039200052F82330A36105F1100318356360A560D8
:10393000E56070BD78790208B0F9100000F0E6BAD1
:1039400010B58369446971B9216893FAA3F2B2FA98
:1039500082F20320520000FA02F221EA020293FAF4
:10396000A3F3226010BD226893FAA3F1B1FA81F1AA
:1039700093FAA3F30320490000FA01F1B3FA83F3A9
:1039800022EA01025B00012101FA03F313432360E1
:1039900010BD08B5FFF798FD0121002001F0F0F8F7
:1039A000BDE80840FFF79CBD054B186830B90122FF
:1039B0001A60044B044A1A60FFF726BD704700BF27
:1039C000E01F00205C440020000C004008B5044BC0
:1039D0001B680BB9FFF7E8FF024B586A08BD00BF30
:1039E000E01F0020000C0040044B054A13605863A0
:1039F000DA6842F00202DA60704700BF000C004053
:103A00005C440020034B044A1360DA6822F002028F
:103A1000DA607047000C00405C440020034A044B0D
:103A200013606FF002021A61704700BF5C4400200F
:103A3000000C004030B507EE101A284B02681A60DF
:103A4000B5EEC07AF1EE10FA89B0054628D4F7EE4B
:103A5000007AB4EE677AF1EE10FAC8BFB0EE677A7A
:103A6000D5ED037AF8EE677A602267EE877A0192E5
:103A7000FCEEE77AAA68C5ED047A17EE903AB3FB3C
:103A8000F2F30293002303930593069304930793A1
:103A90002B7D013B032B16D8DFE803F01B0517191C
:103AA0009FED0F7ADCE70424224601A90B4800F0C1
:103AB00079FE10B10B48FEF7EDF96B7D0748214602
:103AC0004BB100F001FF09B030BD0824ECE70C2435
:103AD000EAE70024E8E700F0D3FEF4E7E41F002063
:103AE0000000000061790208C368ABB107EE903AAC
:103AF000D0ED046AB8EE677AF8EE666AC6EE877AA9
:103B0000B7EE007AF4EE477AF1EE10FAC8BFF0EEA5
:103B1000477A17EE900A7047DFED017AF9E700BFA8
:103B2000000000002DE9F0474A4C0268226086B090
:103B300000230E4600930546FFF7D6FF116A41F2B7
:103B400011131942074608D1116A40F24443194241
:103B500002BF136823F001031360694601A801F056
:103B6000AFFA3D482968002380465FFA83F90133A4
:103B700050F839208A42F8D111B93848FEF78AF94D
:103B800008EBC90898F8043053BB01F069FA0090BB
:103B9000049800990123AB60314B30BBB1FBF3F3C8
:103BA000013B636006F1FF3C2D4B6268B1FBF3FE05
:103BB0004FEA41080021B8FBF3F8C4F80CC0634693
:103BC0008A464FF6FE79B3F5803F12D2B2F5803FB8
:103BD0000FD2BAF1000F00D06260F1B1E3601CE0D7
:103BE00001F056FA00900598D3E74A00B2FBF3F3D0
:103BF000D6E7AB685B00AB6030BB0EFB03F2BCFBEF
:103C0000F3F34B4502F1FF3221D8B2F5803F1ED3CA
:103C100014486260E360FEF73DF900230D4823611C
:103C2000A36000F079FD10B10E48FEF733F9EE60A5
:103C300039462846FFF7FEFE2268136843F0010369
:103C4000136006B0BDE8F08708FB03F2D7E7012157
:103C50008A46B8E7E41F0020B87902084C790208C8
:103C600040420F006179020830B50D46044689B024
:103C70004C492846FEF79CF84A4920602846FEF742
:103C8000B3F8C0F30433484A23752368C0F34040B7
:103C9000934260754FF000021AD10092434A516C72
:103CA00041F001015164526C02F001020092009A4D
:103CB0003F4A934229D1002305933C4B5A6C42F46E
:103CC00080325A645B6C03F480330593059B58E0A3
:103CD000B3F1804F0BD10192344A116C41F00101D4
:103CE0001164126C02F001020192019AE0E731497D
:103CF0008B421AD102922D4A116C41F002011164DB
:103D0000126C02F002020292029A2B4A93421AD1DA
:103D100000230693254B5A6C42F400325A645B6CC4
:103D200003F400330693069B2BE024498B421AD1FF
:103D300003921E4A116C41F004011164126C02F0EE
:103D400004020392039A1E4A93421AD10023079356
:103D5000164B5A6C42F480225A645B6C03F4802345
:103D60000793079B0DE017498B42A1D10F4B04929B
:103D70001A6C42F008021A641B6C03F008030493E7
:103D8000049B08492846FDF7D7FF0023E360236121
:103D90000123A580A36044F620612046FFF7C2FE00
:103DA00009B030BDD87A0208000001400038024056
:103DB0000040014000040040004401400008004071
:103DC00000480140000C004030B5C36891FAA1F4EE
:103DD000B4FA84F491FAA1F10325B1FA81F16400F7
:103DE00005FA04F4490023EA040302FA01F1194335
:103DF000C16030BD012A02D0022A18BF0022FFF79D
:103E0000E3BF00002DE9F0413F4B00F00F08C0F385
:103E1000031053F828400E4601F00705FFF7F2FCA7
:103E2000836894FAA4F1B1FA81F194FAA4F2032719
:103E3000490007FA01F1B2FA82F223EA01035200C3
:103E4000022101FA02F213438D42836028D0BD4261
:103E500041D0012D3FD00023026894FAA4F7B7FAAD
:103E600087F794FAA4F14FF0030EB1FA81F17F00C5
:103E70000EFA07F7490022EA07028B40013D13437F
:103E8000012D036005D8436832074CBF2343A34389
:103E90004360C6F301122146BDE8F041FFF7AABF17
:103EA000B8F1070FC6F3032717D9426A230A93FA1A
:103EB000A3F1B1FA81F193FAA3F34FF00F0EB3FA25
:103EC00083F389000EFA01F19B0022EA010207FA4E
:103ED00003F3134343622B46BEE7026A94FAA4F34A
:103EE000B3FA83F394FAA4F14FF00F0EB1FA81F113
:103EF0009B000EFA03F3890022EA030207FA01F39A
:103F000013430362E7E700BF7879020838B500F091
:103F10000F02194BC0F3031053F822400D46FFF770
:103F200071FC04FB04F2016802EB42030B40B3FB9B
:103F3000F2F3013B012B05D8EB1E022B436809D895
:103F400023434360032D08D101222146BDE83840B8
:103F5000FFF750BF23EA04034360012DF4D0052D81
:103F600001D0022D01D10222EFE721460022BDE857
:103F70003840FFF729BF00BF7879020843090122C2
:103F800000F01F0002FA00F02033044A42F8230038
:103F9000BFF34F8FBFF36F8F704700BF00E100E0AA
:103FA00042681649920110B58B1804688C508268DB
:103FB0005A60C2689A600269DA6042691A61026AEC
:103FC0009A610022DA61DA849A84DA859A85B0F9F6
:103FD0001A2001320AD108225A61184600F0A1FDC8
:103FE00058B10748BDE81040FDF754BFB0F918209C
:103FF00001320CBF04220C22EEE710BD4820002045
:10400000007A0208F7B5194E074656F82000002836
:104010002AD0174CBD0163591A6852060AD5DB68CD
:10402000590607D5134B01211B68984763596FF058
:1040300040021A6063591A6892060CD5DB6898062C
:1040400009D50C4B56F827001B6800219847635987
:104050006FF020021A6063591A68110704D55A6973
:10406000D20744BF5B68019303B0F0BD2420002059
:1040700048200020202000200020FFF7C3BF01209F
:10408000FFF7C0BF0520FFF7BDBF0000F0B50E462B
:1040900085B00446454930461546FDF789FE44493A
:1040A00007462846FDF784FE01463846FDF762FEC6
:1040B000404B206098421ED003F5806398425ED04A
:1040C000A3F5504398422BD13B4B1A6A42F400327D
:1040D0001A621A6A22F400321A62002202921A6CE0
:1040E00042F400321A641B6C03F400330293029B07
:1040F0000123636014E0304B5A6A42F010025A62A6
:104100005A6A002122F010025A6201915A6C42F060
:1041100010025A645B6C616003F010030193019B11
:1041200022493046FDF708FE21492846FDF704FEE6
:10413000721C03D001213046FFF7E8FE6B1C03D050
:1041400001212846FFF7E2FE4FF41653A360002337
:10415000E360236163612362268365832046FFF762
:104160001FFF2268154B9A4207D1154B15480122B3
:104170001A6021464C221CF052F905B0F0BD0E4BDE
:104180005A6A42F020025A625A6A22F020025A62A7
:10419000002203925A6C42F020025A645B6C03F0D6
:1041A00020030393039B0523A3E700BF7C7C020845
:1041B000287C020800100140003802400044004002
:1041C00044200020984400208160FFF7E9BE0000F1
:1041D000034B19604168034B43F82120704700BF2F
:1041E000202000202420002038B54368012B0D46F4
:1041F0001AD0052B1BD0EBB91C4925241C489B0168
:10420000F2B1C258D368C5B943F02003D360204649
:1042100000F086F96209012304F0070403FA04F4AC
:10422000144B43F8224038BD13492624E6E71349CE
:104230004724E3E700210C46E0E743F04003E5E7CD
:10424000C358DA6835B922F02002DA60DB681A0652
:1042500006D538BD22F04002DA60DB689B0604D444
:104260002046BDE83840FFF789BE38BD79400008D8
:104270004820002000E100E07F4000088540000861
:104280004368034A9B01D3581868C0F34010704735
:1042900048200020416810B504462046FFF7F0FF93
:1042A0000028FAD08901034B5B585868C0F3080016
:1042B00010BD00BF482000204368034A9B01D3582B
:1042C0001868C0F3C01070474820002038B5446813
:1042D00005462846FFF7F0FF0028FAD0A401034B5B
:1042E0001B59C1F30801596038BD00BF48200020A8
:1042F00008B500F019F8BDE8084000F001BF7FB52F
:104300000F230193022302934FF4805200230321D1
:1043100001A803930492059300F0ECFDB0FA80F03D
:10432000400907B05DF804FB174A1849936803F089
:104330000C03042B10B50DD0082B0DD0144B0B60C3
:10434000114B144A9B68C3F30313D25C0B68D34030
:104350000B6010BD104BF2E754685068526863025E
:10436000C2F3881200F03F004CBF0B4B084BB3FB6D
:10437000F0F35343044A5268C2F30142013252003F
:10438000B3FBF2F3DBE700BF00380240C0010020BE
:104390000024F400D07C020800127A0000B58FB02F
:1043A0001B4B002100911A6C42F080521A641B6C66
:1043B000184A03F080530093009B0191136823F483
:1043C000404343F400431360136803F440430193F4
:1043D000019B01230293B0B90393022308934FF486
:1043E0008003099304230A930C930823C0220DEB46
:1043F00003000B920D9300F0D3FB30B9FFF77FFF62
:104400000FB05DF804FB0523E6E70020F8E700BFE6
:10441000003802400070004010B58EB000241A4BE6
:1044200000941A6C42F080521A641B6C174A03F015
:1044300080530093009B0194136823F4404343F49A
:10444000004313601368039403F440430193019BFA
:104450000994032302930123059310230693022357
:10446000C022089308230B920DEB030004220A9349
:104470000C920D9300F094FB18B9FFF740FF0EB0BB
:1044800010BD2046FBE700BF00380240007000402E
:1044900008B50120FFF782FF30B9FFF77FFF18B999
:1044A000FFF7BAFF00B9FEE708BD0000174AD2F8CF
:1044B000883010B543F47003154CC2F88830236877
:1044C000002143F001032360A160236823F084737B
:1044D00023F4803323600F4B6360236823F480232D
:1044E00023604FF00063E16093600B4B0B4A1A604E
:1044F00000F006FEFFF7CCFF236A43F008032362B7
:10450000236A23F00803236210BD00BF00ED00E022
:104510000038024010300024C00100200024F400C4
:1045200030B50C4CA268A468B4F1006F13460CD1EE
:10453000131F094C094A53F8045F42F8045FA24272
:10454000F9D1044A4FF000539360103043F8201023
:1045500030BD00BF00ED00E094010020FCFFFF1F14
:10456000036A23F001030362036A70B54468826939
:104570000D6822F073022A438D6823F002032B4357
:104580000A4DA8420BD1CD688E6923F008032B4356
:104590004D6924F44074354323F004032C434460F4
:1045A00082614A684263036270BD00BF000001403F
:1045B000036A23F480730362036A70B54468C269B6
:1045C0000D6822F073022A438D6823F4007343EAD6
:1045D00005230B4DA8420DD1CD688E6923F40063ED
:1045E00043EA05234D6924F44054354323F48063A2
:1045F00044EA05144460C2614A68C263036270BD44
:1046000000000140036A23F480530362036A30B55B
:104610004468C2690D6822F4E64242EA05228D68C8
:1046200023F4005343EA0533064DA84202BF4D6907
:1046300024F4804444EA85144460C2614A680264F8
:10464000036230BD0000014070477047224A036892
:1046500090420ED0B0F1804F0BD0A2F57C42904238
:1046600007D002F58062904203D002F5806290424A
:1046700019D14A6823F070031343174A904204D1BA
:10468000CA6823F44073134318E0B0F1804FF7D0A9
:10469000124A9042F4D002F580629042F0D002F5C6
:1046A00080629042ECD00E4A9042E9D002F58062DE
:1046B0009042E5D002F580629042E1D003608B68C1
:1046C000C3620B688362044B984204BF0B690363A7
:1046D00001234361704700BF000001400004004017
:1046E0000040014010B50446A0B190F8393003F005
:1046F000FF021BB980F83820FFF7A6FF022384F8D9
:1047000039302068211DFFF7A1FF012384F83930DB
:10471000002010BD012010BD10B50446A0B190F8D6
:10472000393003F0FF021BB980F83820FFF78DFF06
:10473000022384F839302068211DFFF787FF012309
:1047400084F83930002010BD012010BD036A23F029
:1047500010030362036A70B5446882690D6822F42D
:10476000E64242EA05228D6823F0200343EA05135E
:104770000B4DA8420DD1CD688E6923F0800343EA2A
:1047800005134D6924F44064354323F0400344EAA3
:104790008504446082614A688263036270BD00BF21
:1047A0000000014038B590F83830012B04464FF036
:1047B000020025D0012384F8383084F839000C2A0F
:1047C00018D8DFE802F0071717171E1717172F174B
:1047D000171740002068FFF7C3FE236809699A692C
:1047E00042F008029A619A6922F004029A619A6979
:1047F0000A439A610123002084F8393084F8380094
:1048000038BD2068FFF7A2FF236809699A6942F45E
:1048100000629A619A6922F480629A619A6942EA16
:104820000122E6E72068FFF7C3FE23680969DA6919
:1048300042F00802DA61DA6922F00402DA61DA6928
:104840000A43DA61D6E72068FFF7DCFE23680969CE
:10485000DA6942F40062DA61DA6922F48062DA61CC
:10486000DA6942EA0122ECE7036A10B501248C40C0
:1048700023EA04030362036A8A401A43026210BDFA
:1048800010B5044601220068FFF7EEFF2368064AD0
:10489000934202BF5A6C42F400425A641A6842F0D2
:1048A00001021A60002010BD00000140FFF7E8BFC0
:1048B000036A10B504248C4023EA04030362036AEC
:1048C0008A401A43026210BD10B5044604220068F3
:1048D000FFF7EEFF23685A6C42F400425A641A68EC
:1048E00042F001021A60002010BD00002DE9F047DF
:1048F0000668C2683369C16923F4405313433361C6
:10490000044683680069F2680343606922F4164232
:10491000034322F00C020B431343F3607369A26953
:1049200023F440731343B1F5004F73617A4B7CD18C
:104930009E4203D003F580639E4244D100F0A8FB61
:10494000192505FB00F360684FF064094000B3FBD4
:10495000F0F3B3FBF9F34FEA031800F099FB636837
:1049600068435B00B0FBF3F700F092FB63686843B9
:104970005B00B0FBF3F3B3FBF9F309FB1373DB004C
:104980003233B3FBF9F35B0003F4F87700F080FBFC
:10499000626868435200B0FBF2FA00F079FB63688A
:1049A00068435B00B0FBF3F3B3FBF9F309FB13A31C
:1049B000DB003233B3FBF9F303F0070343443B441A
:1049C000B360BDE8F08700F04BFB192505FB00F351
:1049D00060684FF064094000B3FBF0F3B3FBF9F3F8
:1049E0004FEA031800F03CFB636868435B00B0FBD0
:1049F000F3F700F035FB636868435B00B0FBF3F34B
:104A0000B3FBF9F309FB1373DB003233B3FBF9F3A8
:104A10005B0003F4F87700F023FB62686843520000
:104A2000B0FBF2FA00F01CFBB9E79E4202D03B4B10
:104A30009E4240D100F02CFB676819254FF06409B5
:104A400005FB00F3BF00B3FBF7F3B3FBF9F31F0162
:104A500000F01EFB636868439B00B0FBF3F800F0B6
:104A600017FB636868439B00B0FBF3F3B3FBF9F3F8
:104A700009FB13831B013233B3FBF9F303F0F00896
:104A800000F006FB626868439200B0FBF2FA00F0A7
:104A9000FFFA636868439B00B0FBF3F3B3FBF9F3E1
:104AA00009FB13A31B013233B3FBF9F303F00F032C
:104AB00043EA080383E700F0D3FA676819254FF04B
:104AC000640905FB00F3BF00B3FBF7F3B3FBF9F395
:104AD0001F0100F0C5FA636868439B00B0FBF3F860
:104AE00000F0BEFA636868439B00B0FBF3F3B3FBCE
:104AF000F9F309FB13831B013233B3FBF9F303F022
:104B0000F00800F0ADFA626868439200B0FBF2FA78
:104B100000F0A6FABDE700BF0010014000140140FC
:104B2000704710B5044640B390F8393003F0FF02E7
:104B30001BB980F83820FFF7F3FF2268242384F89C
:104B40003930D36823F40053D3602046FFF7CEFEFC
:104B500023681A6922F490421A615A6922F02A02E3
:104B60005A61DA6842F40052DA6000202023E063E0
:104B700084F8393084F83A3010BD012010BD0000AF
:104B8000064A1369012923F00403136101D130BFE0
:104B9000704740BF20BF20BF704700BF00ED00E05E
:104BA0000368F7B5DD07044638D42368980771D445
:104BB00023681E0700F1BD8023685D0728D5002308
:104BC0000193A84BA84D1A6C42F080521A641B6CDA
:104BD00003F080530193019B2B6843F480732B6097
:104BE00000F0AEFA06462B68DA0540F1C4809F4B10
:104BF000227A1A70A368002B00F0CB8000F0A0FA94
:104C0000984D064641F288372B6F9B0740F1BA80DA
:104C1000A269002A40F0CD80002015E0914B9A68EF
:104C200002F00C02042A07D09A6802F00C02082A4B
:104C30000CD15B68590209D58A4B1B689A03B4D51D
:104C40006368002BB1D1012003B0F0BD884B2279FD
:104C50001A7063687BB100F073FA824D064641F228
:104C600088372B689B03A0D400F06AFA801BB842F7
:104C7000F7D90320E8E700F063FA7A4D064641F2DF
:104C800088372B68980390D500F05AFA801BB842F9
:104C9000F7D9EEE7734B9A6812F00C0F07D09A68B9
:104CA00002F00C02082A16D15B68590213D46D4B2E
:104CB0001A68920702D5E268012AC4D11868F8225E
:104CC00092FAA2F2B2FA82F122698A4020F0F80147
:104CD0000A431A606CE7E268664BDAB101221A6097
:104CE00000F02EFA5F4D06462B689B070CD529680D
:104CF000F82393FAA3F3B3FA83F22369934021F0E4
:104D0000F80213432B6053E700F01AFA801B0228C5
:104D1000EAD9AEE71A6000F013FA524D06462B6846
:104D20009F077FF545AF00F00BFA801B0228F6D9EC
:104D30009FE76269504B7AB101221A6000F000FAD5
:104D4000484D06466B6F98073FF536AF00F0F8F90F
:104D5000801B0228F6D98CE71A6000F0F1F9414D6A
:104D600006466B6F99077FF527AF00F0E9F9801BC6
:104D70000228F6D97DE700F0E3F9801B02287FF6D0
:104D800032AF76E700F0DCF9801BB8427FF63CAF2B
:104D90006FE700F0D5F9334D064641F288372B6FA7
:104DA00098077FF535AF00F0CBF9801BB842F6D9F4
:104DB0005FE72C4DAB6803F00C03082B3FF443AFC7
:104DC0002E4E0023022A33603ED100F0B9F9074687
:104DD0002B68990132D447F6C07797FAA7F74FF4BA
:104DE0004032B7FA87F792FAA2F24FF07061B2FA46
:104DF00082F091FAA1F1226AE3691343626A02FA2E
:104E000007F7A26A5208013A82403B431343E26A21
:104E1000144CB1FA81F102FA01F10B436B600123EA
:104E2000336000F08DF9054623689A013FF5F4AE32
:104E300000F086F9401B0228F6D91AE700F080F945
:104E4000C01B0228C4D914E700F07AF904462B6885
:104E50009B017FF5E1AE00F073F9001B0228F6D943
:104E600007E700BF00380240007000407038024081
:104E70000238024000004742800E4742600047422D
:104E8000194A936803F00C03042B10B503D0082BC8
:104E900003D0164810BD164810BD5168536801F084
:104EA0003F0113F4800F47F6C074536894FAA4F0DE
:104EB000B0FA80F003EA040323FA00F314BF0C48AD
:104EC0000A48B0FBF1F05843074B4FF440325B689F
:104ED00092FAA2F2B2FA82F203F44033D3400133E1
:104EE0005B00B0FBF3F010BD003802400024F4007A
:104EF00000127A00564B1A6802F00F028A422DE91E
:104F0000F04105460E4630D32A68940737D4D007BF
:104F10003DD44F4B1A6802F00F029642C0F08880D1
:104F20002A68510700F18C80130707D5494A29697F
:104F3000936823F4604343EAC1039360FFF7A0FF43
:104F4000444BF0229B6892FAA2F2B2FA82F203F08A
:104F5000F003D340404AD35CD840404B18600F2048
:104F6000FEF752FA0020BDE8F081CAB21A701B6841
:104F700003F00F039942C7D00120BDE8F081354905
:104F8000A8688B6823F0F00303438B60BFE76A686F
:104F9000304B012A1ED11B6813F4003FECD02D4C7E
:104FA000A36823F003031343A36000F0C9F86B6800
:104FB000012B074641F2883816D1A36803F00C0391
:104FC000042BA6D000F0BCF8C01B4045F5D9032047
:104FD000BDE8F081911E01291B6802D813F0007F03
:104FE000DCE713F0020FD9E7022B0AD1A36803F024
:104FF0000C03082B8DD000F0A3F8C01B4045F5D959
:10500000E5E7032B0FD1A36803F00C030C2B80D032
:1050100000F096F8C01B4045F5D9D8E700F090F8AD
:10502000C01B4045D3D8A36813F00C0FF6D170E72E
:10503000F2B21A701B6803F00F039E429CD16FE717
:105040000449E8688B6823F4E05303438B606BE703
:10505000003C024000380240E07C0208C001002011
:10506000084B4FF4E0529B6892FAA2F2B2FA82F235
:1050700003F4E053D340044AD35C044A1068D84098
:10508000704700BF00380240E07C0208C0010020E9
:10509000084B4FF460429B6892FAA2F2B2FA82F295
:1050A00003F46043D340044AD35C044A1068D840F8
:1050B000704700BF00380240E07C0208C0010020B9
:1050C0000F2303600B4B9A6802F0030242609A6858
:1050D00002F0F00282609A6802F4E052C2609B68BB
:1050E000DB0803F4E0530361034B1B6803F00F0379
:1050F0000B60704700380240003C024070470000DF
:1051000008B50A4B1A6842F400721A601A6842F431
:1051100080621A601A6842F480721A600F20FEF7EB
:1051200073F9FFF7EBFF002008BD00BF003C024011
:10513000024A136801331360704700BFE444002043
:10514000014B1868704700BFE44400204369416880
:1051500010B50446194400F085FA636A04F118009A
:105160001B68BDE81040184738B504460D46FCF7EB
:1051700067FE204600F07CFA65612069FCF7D9FDE6
:105180002918204600F06EFABDE83840FCF76EBEE4
:105190007FB5064606F11804FCF752FE6D46304610
:1051A00000F066FA0023AC4203930BD02046FBF7D5
:1051B000A9F93CB1039B1BB15B686946204698473F
:1051C000039B73622846FBF79DF9FCF74FFE04B082
:1051D00070BD10B50446FCF733FE23682BB9E068B8
:1051E000FCF7A7FD012360602360BDE81040FCF7D9
:1051F0003DBE38B50546FCF723FE2C6824B1E868AF
:10520000FCF797FD6C68041BFCF730FE204638BDA8
:1052100038B50546FCF714FE2846AC68FFF7E9FFF1
:105220000444FCF723FE204638BD000008B5FFF714
:10523000EFFF07EE900AB8EEE77ADFED037AC7EEEC
:10524000276A16EE900A08BD0024744908B5FFF7D6
:10525000DFFF4FF47A7390FBF3F008BD10B50446FE
:10526000FCF7EEFDE068FCF764FD00236060A360DE
:10527000BDE81040FCF7FABD002310B503604360A1
:1052800083600446FCF7DEFCE0602046FFF7E6FFA3
:10529000204610BD7047000010B5044600F02CF900
:1052A000014B2360204610BD0C7D020810B5034B56
:1052B00003600446FCF708FB204610BD0C7D020885
:1052C00010B50446FFF7F2FF204600F0C3FB20466E
:1052D00010BD704783681A6843681A4214BF0120E2
:1052E0000020704710B5084B044640F8203BFEF7FD
:1052F0005FFA04F14000FBF705F904F13000FBF719
:1053000001F9204610BD00BF247D020810B50446F7
:10531000FFF7E8FF204600F09DFB204610BD8842C5
:1053200038B504460D460AD0FBF7ECF83CB1EB6803
:105330001BB15B68294620469847EB68E36020462E
:1053400038BD00002DE9F04305461F4B45F8043BEE
:10535000044685B00E4604F120071C220021284691
:105360001BF082F81022002138461BF07DF8002344
:10537000E363E3646946DFF85890DFF85880CDF8BE
:10538000009004F13000CDF80C80FFF7C8FF6846AC
:10539000FBF7B8F8694604F14000CDF80090CDF86D
:1053A0000C80FFF7BCFF6846FBF7ACF82346074AC2
:1053B00031463846FEF748F928463146FCF72BFCC3
:1053C000204605B0BDE8F083247D0208775400082C
:1053D000D35200085C7502087FB50E460446FCF700
:1053E0002FFDF56804F1300020345DB13146FFF740
:1053F00096FF012201212046FEF7CAF8FCF736FD90
:1054000004B070BD054B00936946054B0393FFF74D
:1054100086FF6846FBF776F82A46EBE7D35200088A
:105420005C7502087FB50E460446FCF709FDF56879
:1054300004F1400020345DB13146FFF770FF0122D6
:1054400002212046FEF7A4F8FCF710FD04B070BD61
:10545000054B00936946054B0393FFF760FF6846D1
:10546000FBF750F82A46EBE7D35200085C750208B8
:10547000C3681B681847012908B502D0022904D067
:1054800008BD3030FFF7F4FF08BD4030FAE7704741
:105490007047704700EB011202F19800D2F8A43077
:1054A0001B68184710B480B1146853680CB9DA0748
:1054B0000BD513F0010F4FEA63031CBFC2581459F8
:1054C000184423465DF8044B18475DF8044B7047B9
:1054D00070B50546044655F84C3B0E461B68984788
:1054E00028463146FEF770FE2368C4F8B8602046AF
:1054F0005B68BDE8704018472DE9F04387B0002590
:105500009146009502460195044688461F469DE84F
:105510000300274B42F8083B264B82E80300236137
:1055200048F207036361244BE561A4612262636270
:10553000BFF36F8FBFF34F8F04F14C064C226563AE
:10554000656484F8485084F8495030461AF08CFF5E
:1055500002A9C4F8A450C4F8B450C4F8B870174DE8
:10556000174F029704F198000595FFF7D8FE02A89F
:10557000FAF7C8FF02A904F1A80002970595FFF702
:10558000CEFE02A8FAF7BEFF4A4641463046FEF775
:105590007DFDD4F8B8103046FEF716FE30462246A0
:1055A0000849FEF715FE204607B0BDE8F08300BFAE
:1055B000347D020801A090E8A55400085C7502083B
:1055C0008F540008955400082DE9FF410546884690
:1055D00055F84C3B1B68044616469847FCF730FCD0
:1055E000D8F80C70300197B1983041462044FFF74D
:1055F00096FE012231462846FEF7F6FDFCF736FC02
:10560000236820465B68984704B0BDE8F081074BEB
:1056100000939830064B039369462044FFF77FFEC2
:105620006846FAF76FFF3A46E4E700BF8F54000878
:105630005C75020803689B6818470000074B10B5AB
:105640000360002343608360C3600446FCF7FAFAFA
:1056500003492061FCF700FB204610BD4C7D020889
:105660003556000803460A46011D0069FCF720BBB9
:10567000011D0069FCF73DBB10B5034B03600446F8
:10568000FFF7F6FF204610BD4C7D020838B50446F2
:1056900048B15830A04206D0A0F12C051438FCF7D0
:1056A0000AF92846F6E7204638BD000070B50E4CD2
:1056B0002046002528263246294640F8045B1AF089
:1056C000D3FE3246294604F13000E5621AF0CCFEE2
:1056D000A5652046E565054A84F860500449BDE8A3
:1056E000704000F05FB900BF482200209801002000
:1056F0008D5600081AF01CBF1AF078BF1AF0CABE07
:105700001AF0BABE70B50546FEF760F94FF47A7428
:1057100095FBF4F4002C064602DDFCF78BFB28B960
:10572000FEF754F9801BA842FAD370BD204600F062
:105730009BF9F5E74FF47A735843FFF7E3BF000096
:10574000014B1868FDF7AAB9BC43002008B5084B07
:105750001B685BB9022107480322FEF797FC4FF450
:1057600016510448BDE80840FEF72EBD08BD00BF35
:105770004420002098440020022810B5044601DC93
:10578000002010BD1AF0B4F809230360033C094B54
:1057900053F82400002243F8242040B103681B6919
:1057A0009847041EECDA1AF0A3F8644204604FF044
:1057B000FF3010BDAC220020F8B505460E46144659
:1057C0001AF096F80923022D03600FDC124B1B68B8
:1057D0000BB9FFF7BBFF35463719104EBD4215D048
:1057E00015F8011B3046FEF771FDF7E7033D0C4B42
:1057F00053F8250060B103682246DB6831469847BC
:10580000041E03DA1AF074F8634203602046F8BD00
:105810004FF0FF34FAE700BF4420002098440020F6
:10582000AC22002070B504460D4616461AF060F80A
:105830000923022C03600BDC0F4B1B680BB9FFF72D
:1058400085FF0E48FEF726FD01242870204670BD16
:10585000033C0B4B53F8240058B1036832469B6855
:1058600029469847041EF1DA1AF042F863420360B1
:10587000ECE74FF0FF34E9E7442000209844002093
:10588000AC22002010B504461AF032F80923022C8D
:10589000036010DD033C0A4B53F8240040B1036859
:1058A0009B699847041E08DA1AF022F864420460E3
:1058B0004FF0FF3010BD012010BD002010BD00BF13
:1058C000AC22002070B504460D4616461AF010F8BA
:1058D0000923022C03600BDD033C084B53F8240022
:1058E00040B1036832462946DB69BDE8704018477D
:1058F000002070BD4FF0FF3070BD00BFAC22002013
:10590000022808B504DC4FF400534B60002008BDAA
:1059100019F0EEFF092303604FF0FF3008BD08B512
:10592000FEF7E6FCFCF71EFB08BD704708B5FFF765
:10593000FCFFBDE80840FBF77DBB00000C4A136884
:1059400010B51844EFF30881884205D3094B0C22A7
:105950001A604FF0FF3010BD07490C6824B10749A9
:10596000096821448842F1D21060184610BD00BF7A
:10597000C4010020E8440020AC230020B023002014
:10598000074C08B52368054698681AF069F823683B
:10599000D8681AF065F80DB1FCF736FAFEE700BFDB
:1059A000480200200120704708B5FFF7E9FF08B55D
:1059B000FCF7E6FA08BD08B5FCF7EAFA08BD08B539
:1059C000FCF7ECFA08BD08B5FCF7F0FA08BD0000DA
:1059D00010B5037803F00303012B04460CD00A4BE7
:1059E0004FF0FF311868FDF731F8237803F0030218
:1059F000012A03D1FFF7A4FE002010BD43F00203EB
:105A00002370012010BD00BFBC430020037823F0A9
:105A1000030343F001030370FFF792BE10B51AF0C1
:105A20003DFC044610B90248FCF734FA204610BD8C
:105A3000777D020810B51AF031FC044610B902480F
:105A4000FCF728FA204610BD587D020808B11AF06C
:105A50002DBC7047FFF7FABF024B1B6803B1184714
:105A6000704700BFB4230020FCF76EBF80F30988A5
:105A70007047EFF309807047684680F309885A48F9
:105A80000078C00714BF0220032080F314887047F9
:105A9000DFF858C1EFF305831B0618BF6047EFF32B
:105AA0001483DB0708BF604700DF7047DFF840C1A1
:105AB000EFF305831B0618BF6047EFF31483DB0782
:105AC00008BF604700DF7047EFF30980816911F874
:105AD000021CE1BB90E80F1010B5E047BDE8104094
